{
  "_format": "hh-sol-artifact-1",
  "contractName": "AssignmentManager",
  "sourceName": "contracts/AssignmentManager.sol",
  "abi": [
    {
      "anonymous": false,
      "inputs": [
        {
          "indexed": true,
          "internalType": "uint256",
          "name": "assignmentId",
          "type": "uint256"
        },
        {
          "indexed": true,
          "internalType": "address",
          "name": "creator",
          "type": "address"
        }
      ],
      "name": "AssignmentCreated",
      "type": "event"
    },
    {
      "anonymous": false,
      "inputs": [
        {
          "indexed": true,
          "internalType": "uint256",
          "name": "assignmentId",
          "type": "uint256"
        }
      ],
      "name": "AssignmentDeactivated",
      "type": "event"
    },
    {
      "anonymous": false,
      "inputs": [
        {
          "indexed": true,
          "internalType": "uint256",
          "name": "assignmentId",
          "type": "uint256"
        }
      ],
      "name": "AssignmentUpdated",
      "type": "event"
    },
    {
      "inputs": [
        {
          "internalType": "uint256",
          "name": "",
          "type": "uint256"
        }
      ],
      "name": "assignments",
      "outputs": [
        {
          "internalType": "string",
          "name": "title",
          "type": "string"
        },
        {
          "internalType": "string",
          "name": "description",
          "type": "string"
        },
        {
          "internalType": "string",
          "name": "question",
          "type": "string"
        },
        {
          "internalType": "string",
          "name": "evaluationCriteria",
          "type": "string"
        },
        {
          "internalType": "string",
          "name": "metaPrompt",
          "type": "string"
        },
        {
          "internalType": "uint256",
          "name": "createdAt",
          "type": "uint256"
        },
        {
          "internalType": "address",
          "name": "creator",
          "type": "address"
        },
        {
          "internalType": "bool",
          "name": "isActive",
          "type": "bool"
        }
      ],
      "stateMutability": "view",
      "type": "function"
    },
    {
      "inputs": [
        {
          "internalType": "string",
          "name": "_title",
          "type": "string"
        },
        {
          "internalType": "string",
          "name": "_description",
          "type": "string"
        },
        {
          "internalType": "string",
          "name": "_question",
          "type": "string"
        },
        {
          "internalType": "string",
          "name": "_evaluationCriteria",
          "type": "string"
        },
        {
          "internalType": "string",
          "name": "_metaPrompt",
          "type": "string"
        }
      ],
      "name": "createAssignment",
      "outputs": [
        {
          "internalType": "uint256",
          "name": "",
          "type": "uint256"
        }
      ],
      "stateMutability": "nonpayable",
      "type": "function"
    },
    {
      "inputs": [
        {
          "internalType": "uint256",
          "name": "_assignmentId",
          "type": "uint256"
        }
      ],
      "name": "deactivateAssignment",
      "outputs": [],
      "stateMutability": "nonpayable",
      "type": "function"
    },
    {
      "inputs": [
        {
          "internalType": "uint256",
          "name": "_assignmentId",
          "type": "uint256"
        }
      ],
      "name": "getAssignment",
      "outputs": [
        {
          "internalType": "string",
          "name": "title",
          "type": "string"
        },
        {
          "internalType": "string",
          "name": "description",
          "type": "string"
        },
        {
          "internalType": "string",
          "name": "question",
          "type": "string"
        },
        {
          "internalType": "string",
          "name": "evaluationCriteria",
          "type": "string"
        },
        {
          "internalType": "string",
          "name": "metaPrompt",
          "type": "string"
        },
        {
          "internalType": "uint256",
          "name": "createdAt",
          "type": "uint256"
        },
        {
          "internalType": "address",
          "name": "creator",
          "type": "address"
        },
        {
          "internalType": "bool",
          "name": "isActive",
          "type": "bool"
        }
      ],
      "stateMutability": "view",
      "type": "function"
    },
    {
      "inputs": [
        {
          "internalType": "uint256",
          "name": "_assignmentId",
          "type": "uint256"
        }
      ],
      "name": "getAssignmentEvaluationCriteria",
      "outputs": [
        {
          "internalType": "string",
          "name": "",
          "type": "string"
        }
      ],
      "stateMutability": "view",
      "type": "function"
    },
    {
      "inputs": [
        {
          "internalType": "uint256",
          "name": "_assignmentId",
          "type": "uint256"
        }
      ],
      "name": "getAssignmentMetaPrompt",
      "outputs": [
        {
          "internalType": "string",
          "name": "",
          "type": "string"
        }
      ],
      "stateMutability": "view",
      "type": "function"
    },
    {
      "inputs": [
        {
          "internalType": "uint256",
          "name": "_assignmentId",
          "type": "uint256"
        }
      ],
      "name": "getAssignmentQuestion",
      "outputs": [
        {
          "internalType": "string",
          "name": "",
          "type": "string"
        }
      ],
      "stateMutability": "view",
      "type": "function"
    },
    {
      "inputs": [
        {
          "internalType": "uint256",
          "name": "_assignmentId",
          "type": "uint256"
        },
        {
          "internalType": "string",
          "name": "_title",
          "type": "string"
        },
        {
          "internalType": "string",
          "name": "_description",
          "type": "string"
        },
        {
          "internalType": "string",
          "name": "_question",
          "type": "string"
        },
        {
          "internalType": "string",
          "name": "_evaluationCriteria",
          "type": "string"
        },
        {
          "internalType": "string",
          "name": "_metaPrompt",
          "type": "string"
        }
      ],
      "name": "updateAssignment",
      "outputs": [],
      "stateMutability": "nonpayable",
      "type": "function"
    }
  ],
  "bytecode": "0x608080604052346100165761145d908161001c8239f35b600080fdfe6080604052600436101561001257600080fd5b60003560e01c80631ead4dff146111225780632898016a146110e65780634e50c75c1461105d5780635e38790514610f835780636b673b201461088f578063a4f9a11214610808578063b00372f8146107b45763c688d59a1461007457600080fd5b346107af5760a03660031901126107af576004356001600160401b0381116107af576100a4903690600401611339565b6024356001600160401b0381116107af576100c3903690600401611339565b6044356001600160401b0381116107af576100e2903690600401611339565b6064356001600160401b0381116107af57610101903690600401611339565b6084356001600160401b0381116107af57610120903690600401611339565b91600154936000198514610799576001850160015560405195610142876111d8565b865260208601526040850152606084015260808301524260a08301523360c0830152600160e083015280600052600060205260406000209082519283516001600160401b03811161048857610197845461119e565b601f8111610755575b506020601f82116001146106ec5781929394956000926106e1575b50508160011b916000199060031b1c19161783555b60208101519283516001600160401b038111610488576101f3600183015461119e565b601f811161069a575b506020601f821160011461062b578192939495600092610620575b50508160011b916000199060031b1c19161760018201555b60408201519283516001600160401b03811161048857610252600284015461119e565b601f81116105d9575b506020601f821160011461056a57819293949560009261055f575b50508160011b916000199060031b1c19161760028301555b60608301519283516001600160401b038111610488576102b1600385015461119e565b601f8111610518575b506020601f82116001146104a957819293949560009261049e575b50508160011b916000199060031b1c19161760038401555b60808101519283516001600160401b03811161048857610310600483015461119e565b94601f861161043d575b602095508590601f83116001146103cc576006939291600091836103c1575b50508160011b916000199060031b1c19161760048201555b60a08301516005820155019060018060a01b0360c08201511682549160e060ff60a01b910151151560a01b16916affffffffffffffffffffff60a81b16171790556040519033817fbe4554d03dbb57ad5b778e19098f4e4add49a0bd00f347204686831faf09b684600080a38152f35b015190503880610339565b9060048401600052866000209160005b601f1985168110610426575091839160019360069695601f1981161061040d575b505050811b016004820155610351565b015160001960f88460031b161c191690553880806103fd565b9192886001819286850151815501940192016103dc565b600483016000526020600020601f830160051c8101966020841061047e575b601f0160051c01955b868110610472575061031a565b60008155600101610465565b909650869061045c565b634e487b7160e01b600052604160045260246000fd5b0151905038806102d5565b6003850160005260206000209060005b601f1984168110610500575060019394959683601f198116106104e7575b505050811b0160038401556102ed565b015160001960f88460031b161c191690553880806104d7565b9091602060018192858b0151815501930191016104b9565b600385016000526020600020601f830160051c810160208410610558575b601f830160051c8201811061054c5750506102ba565b60008155600101610536565b5080610536565b015190503880610276565b6002840160005260206000209060005b601f19841681106105c1575060019394959683601f198116106105a8575b505050811b01600283015561028e565b015160001960f88460031b161c19169055388080610598565b9091602060018192858b01518155019301910161057a565b600284016000526020600020601f830160051c810160208410610619575b601f830160051c8201811061060d57505061025b565b600081556001016105f7565b50806105f7565b015190503880610217565b6001830160005260206000209060005b601f1984168110610682575060019394959683601f19811610610669575b505050811b01600182015561022f565b015160001960f88460031b161c19169055388080610659565b9091602060018192858b01518155019301910161063b565b600183016000526020600020601f830160051c8101602084106106da575b601f830160051c820181106106ce5750506101fc565b600081556001016106b8565b50806106b8565b0151905038806101bb565b8460005260206000209060005b601f198416811061073d575060019394959683601f19811610610724575b505050811b0183556101d0565b015160001960f88460031b161c19169055388080610717565b9091602060018192858b0151815501930191016106f9565b846000526020600020601f830160051c810160208410610792575b601f830160051c820181106107865750506101a0565b60008155600101610770565b5080610770565b634e487b7160e01b600052601160045260246000fd5b600080fd5b346107af5760203660031901126107af576004356107d5600154821061138f565b60005260006020526108046107f06003604060002001611215565b60405191829160208352602083019061115e565b0390f35b346107af5760203660031901126107af57600435610829600154821061138f565b80600052600060205261084d60018060a01b036006604060002001541633146113db565b6000818152602081905260408120600601805460ff60a01b191690557ffd6cc94d3941de8d95057c9e60b861c32f35bb994e3517aa285816f3e3d29c379080a2005b346107af5760c03660031901126107af576024356001600160401b0381116107af576108bf903690600401611339565b6044356001600160401b0381116107af576108de903690600401611339565b6064356001600160401b0381116107af576108fd903690600401611339565b916084356001600160401b0381116107af5761091d903690600401611339565b60a4356001600160401b0381116107af5761093c903690600401611339565b9261094c6001546004351061138f565b600435600052600060205261097260018060a01b036006604060002001541633146113db565b600435600052600060205260406000209260ff600685015460a01c1615610f3e578051906001600160401b0382116104885781906109b0865461119e565b601f8111610eee575b50602090601f8311600114610e8857600092610e7d575b50508160011b916000199060031b1c19161783555b8051906001600160401b038211610488578190610a05600186015461119e565b601f8111610e2a575b50602090601f8311600114610dbd57600092610db2575b50508160011b916000199060031b1c19161760018301555b83516001600160401b03811161048857610a5a600284015461119e565b601f8111610d67575b50602094601f8211600114610cfb57948192939495600092610cf0575b50508160011b916000199060031b1c19161760028301555b8051906001600160401b03821161048857610ab6600384015461119e565b601f8111610ca5575b50602090601f8311600114610c3457600493929160009183610c29575b50508160011b916000199060031b1c19161760038201555b0181516001600160401b03811161048857610b0f825461119e565b601f8111610be1575b50602092601f8211600114610b7d5792819293600092610b72575b50508160011b916000199060031b1c19161790555b6004357f0e65e807622b0233e973ba30a558f9bc7c69e63b697114274e49363af0ec9f02600080a2005b015190508380610b33565b601f198216938360005260206000209160005b868110610bc95750836001959610610bb0575b505050811b019055610b48565b015160001960f88460031b161c19169055838080610ba3565b91926020600181928685015181550194019201610b90565b826000526020600020601f830160051c81019160208410610c1f575b601f0160051c01905b818110610c135750610b18565b60008155600101610c06565b9091508190610bfd565b015190508580610adc565b90601f198316916003850160005260206000209260005b818110610c8d5750916001939185600497969410610c74575b505050811b016003820155610af4565b015160001960f88460031b161c19169055858080610c64565b92936020600181928786015181550195019301610c4b565b600384016000526020600020601f840160051c81019160208510610ce6575b601f0160051c01905b818110610cda5750610abf565b60008155600101610ccd565b9091508190610cc4565b015190508580610a80565b601f198216956002850160005260206000209160005b888110610d4f57508360019596979810610d36575b505050811b016002830155610a98565b015160001960f88460031b161c19169055858080610d26565b91926020600181928685015181550194019201610d11565b600284016000526020600020601f830160051c81019160208410610da8575b601f0160051c01905b818110610d9c5750610a63565b60008155600101610d8f565b9091508190610d86565b015190508680610a25565b600186016000908152602081209350601f198516905b818110610e125750908460019594939210610df9575b505050811b016001830155610a3d565b015160001960f88460031b161c19169055868080610de9565b92936020600181928786015181550195019301610dd3565b909150600185016000526020600020601f840160051c810160208510610e76575b90849392915b601f830160051c82018110610e67575050610a0e565b60008155859450600101610e51565b5080610e4b565b0151905087806109d0565b6000878152602081209350601f198516905b818110610ed65750908460019594939210610ebd575b505050811b0183556109e5565b015160001960f88460031b161c19169055878080610eb0565b92936020600181928786015181550195019301610e9a565b909150856000526020600020601f840160051c810160208510610f37575b90849392915b601f830160051c82018110610f285750506109b9565b60008155859450600101610f12565b5080610f0c565b60405162461bcd60e51b815260206004820152601860248201527f41737369676e6d656e74206973206e6f742061637469766500000000000000006044820152606490fd5b346107af5760203660031901126107af57600435610fa4600154821061138f565b60005260006020526040600020604051610fbd816111d8565b610fc682611215565b8152610804610fd760018401611215565b9160208101928352610feb60028501611215565b9360408201948552610fff60038201611215565b906060830191825261101360048201611215565b80608085015260066005830154928360a087015201549260ff60018060a01b038516948560c088015260a01c161515948560e08201525196519751905190604051988998896112bb565b346107af5760203660031901126107af576004356000526000602052604060002061108781611215565b9061080461109760018301611215565b916110a460028201611215565b936110b160038301611215565b916110be60048201611215565b600660058301549201549360405197889760ff8760a01c169660018060a01b031695896112bb565b346107af5760203660031901126107af57600435611107600154821061138f565b60005260006020526108046107f06002604060002001611215565b346107af5760203660031901126107af57600435611143600154821061138f565b60005260006020526108046107f06004604060002001611215565b919082519283825260005b84811061118a575050826000602080949584010152601f8019910116010190565b602081830181015184830182015201611169565b90600182811c921680156111ce575b60208310146111b857565b634e487b7160e01b600052602260045260246000fd5b91607f16916111ad565b61010081019081106001600160401b0382111761048857604052565b90601f801991011681019081106001600160401b0382111761048857604052565b90604051918260008254926112298461119e565b9081845260019485811690816000146112985750600114611255575b5050611253925003836111f4565b565b9093915060005260209081600020936000915b81831061128057505061125393508201013880611245565b85548884018501529485019487945091830191611268565b91505061125394506020925060ff191682840152151560051b8201013880611245565b969361130061131c946112f260e0999c9b98956112e461130e968d61010090818152019061115e565b8c810360208e01529061115e565b908a820360408c015261115e565b9088820360608a015261115e565b90868203608088015261115e565b60a08501969096526001600160a01b031660c08401521515910152565b81601f820112156107af578035906001600160401b038211610488576040519261136d601f8401601f1916602001856111f4565b828452602083830101116107af57816000926020809301838601378301015290565b1561139657565b60405162461bcd60e51b815260206004820152601960248201527f41737369676e6d656e7420646f6573206e6f74206578697374000000000000006044820152606490fd5b156113e257565b60405162461bcd60e51b815260206004820152601760248201527f4f6e6c792063726561746f722063616e206d6f646966790000000000000000006044820152606490fdfea2646970667358221220c01117ef06fd011214b483d41542cf171be7cfc0a5e4f2693ba121abe7f01b3c64736f6c63430008130033",
  "linkReferences": {},
  "deployedLinkReferences": {}
}