{
  "_format": "hh-sol-artifact-1",
  "contractName": "AssignmentManager",
  "sourceName": "contracts/AssignmentManager.sol",
  "abi": [
    {
      "anonymous": false,
      "inputs": [
        {
          "indexed": true,
          "internalType": "uint256",
          "name": "assignmentId",
          "type": "uint256"
        },
        {
          "indexed": true,
          "internalType": "address",
          "name": "creator",
          "type": "address"
        }
      ],
      "name": "AssignmentCreated",
      "type": "event"
    },
    {
      "anonymous": false,
      "inputs": [
        {
          "indexed": true,
          "internalType": "uint256",
          "name": "assignmentId",
          "type": "uint256"
        }
      ],
      "name": "AssignmentDeactivated",
      "type": "event"
    },
    {
      "anonymous": false,
      "inputs": [
        {
          "indexed": true,
          "internalType": "uint256",
          "name": "assignmentId",
          "type": "uint256"
        }
      ],
      "name": "AssignmentUpdated",
      "type": "event"
    },
    {
      "inputs": [],
      "name": "assignmentCounter",
      "outputs": [
        {
          "internalType": "uint256",
          "name": "",
          "type": "uint256"
        }
      ],
      "stateMutability": "view",
      "type": "function"
    },
    {
      "inputs": [
        {
          "internalType": "uint256",
          "name": "",
          "type": "uint256"
        }
      ],
      "name": "assignments",
      "outputs": [
        {
          "internalType": "string",
          "name": "title",
          "type": "string"
        },
        {
          "internalType": "string",
          "name": "description",
          "type": "string"
        },
        {
          "internalType": "string",
          "name": "question",
          "type": "string"
        },
        {
          "internalType": "string",
          "name": "metaPromptIpfsHash",
          "type": "string"
        },
        {
          "internalType": "uint256",
          "name": "createdAt",
          "type": "uint256"
        },
        {
          "internalType": "address",
          "name": "creator",
          "type": "address"
        },
        {
          "internalType": "bool",
          "name": "isActive",
          "type": "bool"
        }
      ],
      "stateMutability": "view",
      "type": "function"
    },
    {
      "inputs": [
        {
          "internalType": "string",
          "name": "_title",
          "type": "string"
        },
        {
          "internalType": "string",
          "name": "_description",
          "type": "string"
        },
        {
          "internalType": "string",
          "name": "_question",
          "type": "string"
        },
        {
          "internalType": "string[]",
          "name": "_evaluationCriteria",
          "type": "string[]"
        },
        {
          "internalType": "string",
          "name": "_metaPromptIpfsHash",
          "type": "string"
        }
      ],
      "name": "createAssignment",
      "outputs": [
        {
          "internalType": "uint256",
          "name": "",
          "type": "uint256"
        }
      ],
      "stateMutability": "nonpayable",
      "type": "function"
    },
    {
      "inputs": [
        {
          "internalType": "uint256",
          "name": "_assignmentId",
          "type": "uint256"
        }
      ],
      "name": "deactivateAssignment",
      "outputs": [],
      "stateMutability": "nonpayable",
      "type": "function"
    },
    {
      "inputs": [
        {
          "internalType": "uint256",
          "name": "_assignmentId",
          "type": "uint256"
        }
      ],
      "name": "getAssignment",
      "outputs": [
        {
          "internalType": "string",
          "name": "title",
          "type": "string"
        },
        {
          "internalType": "string",
          "name": "description",
          "type": "string"
        },
        {
          "internalType": "string",
          "name": "question",
          "type": "string"
        },
        {
          "internalType": "string[]",
          "name": "evaluationCriteria",
          "type": "string[]"
        },
        {
          "internalType": "string",
          "name": "metaPromptIpfsHash",
          "type": "string"
        },
        {
          "internalType": "uint256",
          "name": "createdAt",
          "type": "uint256"
        },
        {
          "internalType": "address",
          "name": "creator",
          "type": "address"
        },
        {
          "internalType": "bool",
          "name": "isActive",
          "type": "bool"
        }
      ],
      "stateMutability": "view",
      "type": "function"
    },
    {
      "inputs": [
        {
          "internalType": "uint256",
          "name": "_assignmentId",
          "type": "uint256"
        }
      ],
      "name": "getAssignmentEvaluationCriteria",
      "outputs": [
        {
          "internalType": "string[]",
          "name": "",
          "type": "string[]"
        }
      ],
      "stateMutability": "view",
      "type": "function"
    },
    {
      "inputs": [
        {
          "internalType": "uint256",
          "name": "_assignmentId",
          "type": "uint256"
        }
      ],
      "name": "getAssignmentMetaPromptIpfsHash",
      "outputs": [
        {
          "internalType": "string",
          "name": "",
          "type": "string"
        }
      ],
      "stateMutability": "view",
      "type": "function"
    },
    {
      "inputs": [
        {
          "internalType": "uint256",
          "name": "_assignmentId",
          "type": "uint256"
        }
      ],
      "name": "getAssignmentQuestion",
      "outputs": [
        {
          "internalType": "string",
          "name": "",
          "type": "string"
        }
      ],
      "stateMutability": "view",
      "type": "function"
    },
    {
      "inputs": [
        {
          "internalType": "uint256",
          "name": "_assignmentId",
          "type": "uint256"
        },
        {
          "internalType": "string",
          "name": "_title",
          "type": "string"
        },
        {
          "internalType": "string",
          "name": "_description",
          "type": "string"
        },
        {
          "internalType": "string",
          "name": "_question",
          "type": "string"
        },
        {
          "internalType": "string[]",
          "name": "_evaluationCriteria",
          "type": "string[]"
        },
        {
          "internalType": "string",
          "name": "_metaPromptIpfsHash",
          "type": "string"
        }
      ],
      "name": "updateAssignment",
      "outputs": [],
      "stateMutability": "nonpayable",
      "type": "function"
    }
  ],
  "bytecode": "0x6080806040523461001657611652908161001c8239f35b600080fdfe6080604052600436101561001257600080fd5b60003560e01c80632898016a14611252578063375ce5f814610ada5780633d788f4314610abc5780634e50c75c146109f25780635a1d7d4d146109a25780635e387905146108aa5780638d492aee1461015f578063a4f9a112146100d85763b00372f81461007f57600080fd5b346100d35760203660031901126100d3576004356100a0600154821061152f565b60005260006020526100cf6100bb60036040600020016115c7565b6040519182916020835260208301906114bc565b0390f35b600080fd5b346100d35760203660031901126100d3576004356100f9600154821061152f565b80600052600060205261011d60018060a01b0360066040600020015416331461157b565b6000818152602081905260408120600601805460ff60a01b191690557ffd6cc94d3941de8d95057c9e60b861c32f35bb994e3517aa285816f3e3d29c379080a2005b346100d35760c03660031901126100d3576024356001600160401b0381116100d35761018f9036906004016112ef565b6044356001600160401b0381116100d3576101ae9036906004016112ef565b906064356001600160401b0381116100d3576101ce9036906004016112ef565b6084356001600160401b0381116100d3576101ed90369060040161135c565b9060a4356001600160401b0381116100d35761020d9036906004016112ef565b9361021d6001546004351061152f565b600435600052600060205261024360018060a01b0360066040600020015416331461157b565b600435600052600060205260406000209360ff600686015460a01c1615610865578051906001600160401b0382116104ce57819061028187546113dc565b601f8111610833575b50602090601f83116001146107cd576000926107c2575b50508160011b916000199060031b1c19161784555b805160018501916001600160401b0382116104ce5781906102d784546113dc565b601f8111610790575b50602090601f831160011461072a5760009261071f575b50508160011b916000199060031b1c19161790555b805160028401916001600160401b0382116104ce57819061032d84546113dc565b601f81116106ed575b50602090601f83116001146106875760009261067c575b50508160011b916000199060031b1c19161790555b805190600160401b82116104ce576003830154826003850155808310610604575b5060200190600383016000526020600020916000905b8282106104e457856004860181516001600160401b0381116104ce576103bf82546113dc565b601f8111610491575b50602092601f821160011461042d5792819293600092610422575b50508160011b916000199060031b1c19161790555b6004357f0e65e807622b0233e973ba30a558f9bc7c69e63b697114274e49363af0ec9f02600080a2005b0151905083806103e3565b601f198216938360005260206000209160005b8681106104795750836001959610610460575b505050811b0190556103f8565b015160001960f88460031b161c19169055838080610453565b91926020600181928685015181550194019201610440565b6104be90836000526020600020601f840160051c810191602085106104c4575b601f0160051c0190611518565b836103c8565b90915081906104b1565b634e487b7160e01b600052604160045260246000fd5b80518051906001600160401b0382116104ce5761050186546113dc565b601f81116105c7575b50602090601f831160011461055757928260019493602093869560009261054c575b5050600019600383901b1c191690841b1787555b01940191019092610399565b015190508b8061052c565b908660005260206000209160005b601f19851681106105af575083602093600196938796938794601f19811610610596575b505050811b018755610540565b015160001960f88460031b161c191690558b8080610589565b91926020600181928685015181550194019201610565565b6105f4908760005260206000206005601f8601811c820192602087106105fa575b601f01901c0190611518565b8861050a565b91925082916105e8565b600384016000526020600020908382015b8183018110610625575050610383565b80610632600192546113dc565b8061063f575b5001610615565b601f811183146106555750600081555b88610638565b600090828252610673601f60208420920160051c8201858301611518565b8183555561064f565b01519050868061034d565b6000858152602081209350601f198516905b8181106106d557509084600195949392106106bc575b505050811b019055610362565b015160001960f88460031b161c191690558680806106af565b92936020600181928786015181550195019301610699565b61071990856000526020600020601f850160051c810191602086106104c457601f0160051c0190611518565b87610336565b0151905087806102f7565b6000858152602081209350601f198516905b818110610778575090846001959493921061075f575b505050811b01905561030c565b015160001960f88460031b161c19169055878080610752565b9293602060018192878601518155019501930161073c565b6107bc90856000526020600020601f850160051c810191602086106104c457601f0160051c0190611518565b886102e0565b0151905087806102a1565b6000888152602081209350601f198516905b81811061081b5750908460019594939210610802575b505050811b0184556102b6565b015160001960f88460031b161c191690558780806107f5565b929360206001819287860151815501950193016107df565b61085f90886000526020600020601f850160051c810191602086106104c457601f0160051c0190611518565b8861028a565b60405162461bcd60e51b815260206004820152601860248201527f41737369676e6d656e74206973206e6f742061637469766500000000000000006044820152606490fd5b346100d35760203660031901126100d3576004356108cb600154821061152f565b60005260006020526109446040600020600581015460ff600683015461097c6108f385611416565b9461096e61090360018301611416565b9161096061091360028301611416565b61095261092e6004610927600387016115c7565b9501611416565b956040519c8d9c8d61010090818152019061128e565b8c810360208e01529061128e565b908a820360408c015261128e565b9088820360608a01526114bc565b90868203608088015261128e565b60a0858101949094526001600160a01b03821660c0860152921c16151560e08301520390f35b346100d35760203660031901126100d3576004356109c3600154821061152f565b60005260006020526100cf6109de6004604060002001611416565b60405191829160208352602083019061128e565b346100d35760203660031901126100d3576004356000526000602052610a6f6040600020610a1f81611416565b9060ff610a2e60018301611416565b610a99610a3d60028501611416565b610a8b610a4c60048701611416565b91610a7d60066005890154980154956040519a8b9a60e08c5260e08c019061128e565b908a820360208c015261128e565b9088820360408a015261128e565b90868203606088015261128e565b92608085015260018060a01b03811660a085015260a01c16151560c08301520390f35b346100d35760003660031901126100d3576020600154604051908152f35b346100d35760a03660031901126100d3576004356001600160401b0381116100d357610b0a9036906004016112ef565b6024356001600160401b0381116100d357610b299036906004016112ef565b6044356001600160401b0381116100d357610b489036906004016112ef565b6064356001600160401b0381116100d357610b6790369060040161135c565b6084356001600160401b0381116100d357610b869036906004016112ef565b9160015493600019851461123c57600185016001556040519561010087018781106001600160401b038211176104ce57604052865260208601526040850152606084015260808301524260a08301523360c0830152600160e083015280600052600060205260406000209082519283516001600160401b0381116104ce57610c0e84546113dc565b601f811161120a575b50602094601f82116001146111a457948192939495600092611199575b50508160011b916000199060031b1c19161783555b602081015180516001600160401b0381116104ce57806001860192610c6e84546113dc565b601f8111611167575b50602090601f8311600114611101576000926110f6575b50508160011b916000199060031b1c19161790555b604081015180516001600160401b0381116104ce57806002860192610cc884546113dc565b601f81116110c4575b50602090601f831160011461105e57600092611053575b50508160011b916000199060031b1c19161790555b6060810151805190600160401b82116104ce576003850154826003870155808310610fdb575b5060200190600385016000526020600020916000905b828210610ec6575050505060808101519283516001600160401b0381116104ce57602094610d6a60048401546113dc565b601f8111610e93575b508590601f8311600114610e2257600693929160009183610e17575b50508160011b916000199060031b1c19161760048201555b60a08301516005820155019060018060a01b0360c08201511682549160e060ff60a01b910151151560a01b16916affffffffffffffffffffff60a81b16171790556040519033817fbe4554d03dbb57ad5b778e19098f4e4add49a0bd00f347204686831faf09b684600080a38152f35b015190508780610d8f565b9060048401600052866000209160005b601f1985168110610e7c575091839160019360069695601f19811610610e63575b505050811b016004820155610da7565b015160001960f88460031b161c19169055878080610e53565b919288600181928685015181550194019201610e32565b610ec0906004850160005287600020601f850160051c8101918986106104c457601f0160051c0190611518565b86610d73565b80518051906001600160401b0382116104ce57610ee386546113dc565b601f8111610fa9575b50602090601f8311600114610f39579282600194936020938695600092610f2e575b5050600019600383901b1c191690841b1787555b01940191019092610d39565b015190508c80610f0e565b908660005260206000209160005b601f1985168110610f91575083602093600196938796938794601f19811610610f78575b505050811b018755610f22565b015160001960f88460031b161c191690558c8080610f6b565b91926020600181928685015181550194019201610f47565b610fd5908760005260206000206005601f8601811c820192602087106105fa57601f01901c0190611518565b89610eec565b600386016000526020600020908382015b8183018110610ffc575050610d23565b80611009600192546113dc565b80611016575b5001610fec565b601f8111831461102c5750600081555b8961100f565b60009082825261104a601f60208420920160051c8201858301611518565b81835555611026565b015190508680610ce8565b6000858152602081209350601f198516905b8181106110ac5750908460019594939210611093575b505050811b019055610cfd565b015160001960f88460031b161c19169055868080611086565b92936020600181928786015181550195019301611070565b6110f090856000526020600020601f850160051c810191602086106104c457601f0160051c0190611518565b87610cd1565b015190508680610c8e565b6000858152602081209350601f198516905b81811061114f5750908460019594939210611136575b505050811b019055610ca3565b015160001960f88460031b161c19169055868080611129565b92936020600181928786015181550195019301611113565b61119390856000526020600020601f850160051c810191602086106104c457601f0160051c0190611518565b87610c77565b015190508580610c34565b601f198216958560005260206000209160005b8881106111f2575083600195969798106111d9575b505050811b018355610c49565b015160001960f88460031b161c191690558580806111cc565b919260206001819286850151815501940192016111b7565b61123690856000526020600020601f840160051c810191602085106104c457601f0160051c0190611518565b85610c17565b634e487b7160e01b600052601160045260246000fd5b346100d35760203660031901126100d357600435611273600154821061152f565b60005260006020526100cf6109de6002604060002001611416565b919082519283825260005b8481106112ba575050826000602080949584010152601f8019910116010190565b602081830181015184830182015201611299565b90601f801991011681019081106001600160401b038211176104ce57604052565b81601f820112156100d3578035906001600160401b0382116104ce5760405192611323601f8401601f1916602001856112ce565b828452602083830101116100d357816000926020809301838601378301015290565b6001600160401b0381116104ce5760051b60200190565b9080601f830112156100d35781359061137482611345565b9261138260405194856112ce565b828452602092838086019160051b830101928084116100d357848301915b8483106113b05750505050505090565b82356001600160401b0381116100d35786916113d1848480948901016112ef565b8152019201916113a0565b90600182811c9216801561140c575b60208310146113f657565b634e487b7160e01b600052602260045260246000fd5b91607f16916113eb565b906040519182600082549261142a846113dc565b9081845260019485811690816000146114995750600114611456575b5050611454925003836112ce565b565b9093915060005260209081600020936000915b81831061148157505061145493508201013880611446565b85548884018501529485019487945091830191611469565b91505061145494506020925060ff191682840152151560051b8201013880611446565b908082519081815260208091019281808460051b8301019501936000915b8483106114ea5750505050505090565b9091929394958480611508600193601f198682030187528a5161128e565b98019301930191949392906114da565b818110611523575050565b60008155600101611518565b1561153657565b60405162461bcd60e51b815260206004820152601960248201527f41737369676e6d656e7420646f6573206e6f74206578697374000000000000006044820152606490fd5b1561158257565b60405162461bcd60e51b815260206004820152601760248201527f4f6e6c792063726561746f722063616e206d6f646966790000000000000000006044820152606490fd5b9081546115d381611345565b926115e160405194856112ce565b818452600090815260208082208186015b848410611600575050505050565b600183819261160e85611416565b8152019201930192906115f256fea26469706673582212203e75311d76e64bbe913c27eb6d04378d1bb51cdee0ce45a3912107e150eb7aea64736f6c63430008140033",
  "linkReferences": {},
  "deployedLinkReferences": {}
}