{
  "_format": "hh-sol-artifact-1",
  "contractName": "AssignmentManager",
  "sourceName": "contracts/AssignmentManager.sol",
  "abi": [
    {
      "anonymous": false,
      "inputs": [
        {
          "indexed": true,
          "internalType": "uint256",
          "name": "assignmentId",
          "type": "uint256"
        },
        {
          "indexed": true,
          "internalType": "address",
          "name": "creator",
          "type": "address"
        }
      ],
      "name": "AssignmentCreated",
      "type": "event"
    },
    {
      "anonymous": false,
      "inputs": [
        {
          "indexed": true,
          "internalType": "uint256",
          "name": "assignmentId",
          "type": "uint256"
        }
      ],
      "name": "AssignmentDeactivated",
      "type": "event"
    },
    {
      "anonymous": false,
      "inputs": [
        {
          "indexed": true,
          "internalType": "uint256",
          "name": "assignmentId",
          "type": "uint256"
        }
      ],
      "name": "AssignmentUpdated",
      "type": "event"
    },
    {
      "inputs": [],
      "name": "assignmentCounter",
      "outputs": [
        {
          "internalType": "uint256",
          "name": "",
          "type": "uint256"
        }
      ],
      "stateMutability": "view",
      "type": "function"
    },
    {
      "inputs": [
        {
          "internalType": "uint256",
          "name": "",
          "type": "uint256"
        }
      ],
      "name": "assignments",
      "outputs": [
        {
          "internalType": "string",
          "name": "title",
          "type": "string"
        },
        {
          "internalType": "string",
          "name": "description",
          "type": "string"
        },
        {
          "internalType": "string",
          "name": "question",
          "type": "string"
        },
        {
          "internalType": "string",
          "name": "evaluationCriteria",
          "type": "string"
        },
        {
          "internalType": "string",
          "name": "metaPrompt",
          "type": "string"
        },
        {
          "internalType": "uint256",
          "name": "createdAt",
          "type": "uint256"
        },
        {
          "internalType": "address",
          "name": "creator",
          "type": "address"
        },
        {
          "internalType": "bool",
          "name": "isActive",
          "type": "bool"
        }
      ],
      "stateMutability": "view",
      "type": "function"
    },
    {
      "inputs": [
        {
          "internalType": "string",
          "name": "_title",
          "type": "string"
        },
        {
          "internalType": "string",
          "name": "_description",
          "type": "string"
        },
        {
          "internalType": "string",
          "name": "_question",
          "type": "string"
        },
        {
          "internalType": "string",
          "name": "_evaluationCriteria",
          "type": "string"
        },
        {
          "internalType": "string",
          "name": "_metaPrompt",
          "type": "string"
        }
      ],
      "name": "createAssignment",
      "outputs": [
        {
          "internalType": "uint256",
          "name": "",
          "type": "uint256"
        }
      ],
      "stateMutability": "nonpayable",
      "type": "function"
    },
    {
      "inputs": [
        {
          "internalType": "uint256",
          "name": "_assignmentId",
          "type": "uint256"
        }
      ],
      "name": "deactivateAssignment",
      "outputs": [],
      "stateMutability": "nonpayable",
      "type": "function"
    },
    {
      "inputs": [
        {
          "internalType": "uint256",
          "name": "_assignmentId",
          "type": "uint256"
        }
      ],
      "name": "getAssignment",
      "outputs": [
        {
          "internalType": "string",
          "name": "title",
          "type": "string"
        },
        {
          "internalType": "string",
          "name": "description",
          "type": "string"
        },
        {
          "internalType": "string",
          "name": "question",
          "type": "string"
        },
        {
          "internalType": "string",
          "name": "evaluationCriteria",
          "type": "string"
        },
        {
          "internalType": "string",
          "name": "metaPrompt",
          "type": "string"
        },
        {
          "internalType": "uint256",
          "name": "createdAt",
          "type": "uint256"
        },
        {
          "internalType": "address",
          "name": "creator",
          "type": "address"
        },
        {
          "internalType": "bool",
          "name": "isActive",
          "type": "bool"
        }
      ],
      "stateMutability": "view",
      "type": "function"
    },
    {
      "inputs": [
        {
          "internalType": "uint256",
          "name": "_assignmentId",
          "type": "uint256"
        }
      ],
      "name": "getAssignmentEvaluationCriteria",
      "outputs": [
        {
          "internalType": "string",
          "name": "",
          "type": "string"
        }
      ],
      "stateMutability": "view",
      "type": "function"
    },
    {
      "inputs": [
        {
          "internalType": "uint256",
          "name": "_assignmentId",
          "type": "uint256"
        }
      ],
      "name": "getAssignmentMetaPrompt",
      "outputs": [
        {
          "internalType": "string",
          "name": "",
          "type": "string"
        }
      ],
      "stateMutability": "view",
      "type": "function"
    },
    {
      "inputs": [
        {
          "internalType": "uint256",
          "name": "_assignmentId",
          "type": "uint256"
        }
      ],
      "name": "getAssignmentQuestion",
      "outputs": [
        {
          "internalType": "string",
          "name": "",
          "type": "string"
        }
      ],
      "stateMutability": "view",
      "type": "function"
    },
    {
      "inputs": [
        {
          "internalType": "uint256",
          "name": "_assignmentId",
          "type": "uint256"
        },
        {
          "internalType": "string",
          "name": "_title",
          "type": "string"
        },
        {
          "internalType": "string",
          "name": "_description",
          "type": "string"
        },
        {
          "internalType": "string",
          "name": "_question",
          "type": "string"
        },
        {
          "internalType": "string",
          "name": "_evaluationCriteria",
          "type": "string"
        },
        {
          "internalType": "string",
          "name": "_metaPrompt",
          "type": "string"
        }
      ],
      "name": "updateAssignment",
      "outputs": [],
      "stateMutability": "nonpayable",
      "type": "function"
    }
  ],
  "bytecode": "0x6080806040523461001657611486908161001c8239f35b600080fdfe6080604052600436101561001257600080fd5b60003560e01c80631ead4dff1461114b5780632898016a1461110f5780633d788f43146110f15780634e50c75c146110685780635e38790514610f8e5780636b673b201461089a578063a4f9a11214610813578063b00372f8146107bf5763c688d59a1461007f57600080fd5b346107ba5760a03660031901126107ba576004356001600160401b0381116107ba576100af903690600401611362565b6024356001600160401b0381116107ba576100ce903690600401611362565b6044356001600160401b0381116107ba576100ed903690600401611362565b6064356001600160401b0381116107ba5761010c903690600401611362565b6084356001600160401b0381116107ba5761012b903690600401611362565b916001549360001985146107a457600185016001556040519561014d87611201565b865260208601526040850152606084015260808301524260a08301523360c0830152600160e083015280600052600060205260406000209082519283516001600160401b038111610493576101a284546111c7565b601f8111610760575b506020601f82116001146106f75781929394956000926106ec575b50508160011b916000199060031b1c19161783555b60208101519283516001600160401b038111610493576101fe60018301546111c7565b601f81116106a5575b506020601f821160011461063657819293949560009261062b575b50508160011b916000199060031b1c19161760018201555b60408201519283516001600160401b0381116104935761025d60028401546111c7565b601f81116105e4575b506020601f821160011461057557819293949560009261056a575b50508160011b916000199060031b1c19161760028301555b60608301519283516001600160401b038111610493576102bc60038501546111c7565b601f8111610523575b506020601f82116001146104b45781929394956000926104a9575b50508160011b916000199060031b1c19161760038401555b60808101519283516001600160401b0381116104935761031b60048301546111c7565b94601f8611610448575b602095508590601f83116001146103d7576006939291600091836103cc575b50508160011b916000199060031b1c19161760048201555b60a08301516005820155019060018060a01b0360c08201511682549160e060ff60a01b910151151560a01b16916affffffffffffffffffffff60a81b16171790556040519033817fbe4554d03dbb57ad5b778e19098f4e4add49a0bd00f347204686831faf09b684600080a38152f35b015190503880610344565b9060048401600052866000209160005b601f1985168110610431575091839160019360069695601f19811610610418575b505050811b01600482015561035c565b015160001960f88460031b161c19169055388080610408565b9192886001819286850151815501940192016103e7565b600483016000526020600020601f830160051c81019660208410610489575b601f0160051c01955b86811061047d5750610325565b60008155600101610470565b9096508690610467565b634e487b7160e01b600052604160045260246000fd5b0151905038806102e0565b6003850160005260206000209060005b601f198416811061050b575060019394959683601f198116106104f2575b505050811b0160038401556102f8565b015160001960f88460031b161c191690553880806104e2565b9091602060018192858b0151815501930191016104c4565b600385016000526020600020601f830160051c810160208410610563575b601f830160051c820181106105575750506102c5565b60008155600101610541565b5080610541565b015190503880610281565b6002840160005260206000209060005b601f19841681106105cc575060019394959683601f198116106105b3575b505050811b016002830155610299565b015160001960f88460031b161c191690553880806105a3565b9091602060018192858b015181550193019101610585565b600284016000526020600020601f830160051c810160208410610624575b601f830160051c82018110610618575050610266565b60008155600101610602565b5080610602565b015190503880610222565b6001830160005260206000209060005b601f198416811061068d575060019394959683601f19811610610674575b505050811b01600182015561023a565b015160001960f88460031b161c19169055388080610664565b9091602060018192858b015181550193019101610646565b600183016000526020600020601f830160051c8101602084106106e5575b601f830160051c820181106106d9575050610207565b600081556001016106c3565b50806106c3565b0151905038806101c6565b8460005260206000209060005b601f1984168110610748575060019394959683601f1981161061072f575b505050811b0183556101db565b015160001960f88460031b161c19169055388080610722565b9091602060018192858b015181550193019101610704565b846000526020600020601f830160051c81016020841061079d575b601f830160051c820181106107915750506101ab565b6000815560010161077b565b508061077b565b634e487b7160e01b600052601160045260246000fd5b600080fd5b346107ba5760203660031901126107ba576004356107e060015482106113b8565b600052600060205261080f6107fb600360406000200161123e565b604051918291602083526020830190611187565b0390f35b346107ba5760203660031901126107ba5760043561083460015482106113b8565b80600052600060205261085860018060a01b03600660406000200154163314611404565b6000818152602081905260408120600601805460ff60a01b191690557ffd6cc94d3941de8d95057c9e60b861c32f35bb994e3517aa285816f3e3d29c379080a2005b346107ba5760c03660031901126107ba576024356001600160401b0381116107ba576108ca903690600401611362565b6044356001600160401b0381116107ba576108e9903690600401611362565b6064356001600160401b0381116107ba57610908903690600401611362565b916084356001600160401b0381116107ba57610928903690600401611362565b60a4356001600160401b0381116107ba57610947903690600401611362565b92610957600154600435106113b8565b600435600052600060205261097d60018060a01b03600660406000200154163314611404565b600435600052600060205260406000209260ff600685015460a01c1615610f49578051906001600160401b0382116104935781906109bb86546111c7565b601f8111610ef9575b50602090601f8311600114610e9357600092610e88575b50508160011b916000199060031b1c19161783555b8051906001600160401b038211610493578190610a1060018601546111c7565b601f8111610e35575b50602090601f8311600114610dc857600092610dbd575b50508160011b916000199060031b1c19161760018301555b83516001600160401b03811161049357610a6560028401546111c7565b601f8111610d72575b50602094601f8211600114610d0657948192939495600092610cfb575b50508160011b916000199060031b1c19161760028301555b8051906001600160401b03821161049357610ac160038401546111c7565b601f8111610cb0575b50602090601f8311600114610c3f57600493929160009183610c34575b50508160011b916000199060031b1c19161760038201555b0181516001600160401b03811161049357610b1a82546111c7565b601f8111610bec575b50602092601f8211600114610b885792819293600092610b7d575b50508160011b916000199060031b1c19161790555b6004357f0e65e807622b0233e973ba30a558f9bc7c69e63b697114274e49363af0ec9f02600080a2005b015190508380610b3e565b601f198216938360005260206000209160005b868110610bd45750836001959610610bbb575b505050811b019055610b53565b015160001960f88460031b161c19169055838080610bae565b91926020600181928685015181550194019201610b9b565b826000526020600020601f830160051c81019160208410610c2a575b601f0160051c01905b818110610c1e5750610b23565b60008155600101610c11565b9091508190610c08565b015190508580610ae7565b90601f198316916003850160005260206000209260005b818110610c985750916001939185600497969410610c7f575b505050811b016003820155610aff565b015160001960f88460031b161c19169055858080610c6f565b92936020600181928786015181550195019301610c56565b600384016000526020600020601f840160051c81019160208510610cf1575b601f0160051c01905b818110610ce55750610aca565b60008155600101610cd8565b9091508190610ccf565b015190508580610a8b565b601f198216956002850160005260206000209160005b888110610d5a57508360019596979810610d41575b505050811b016002830155610aa3565b015160001960f88460031b161c19169055858080610d31565b91926020600181928685015181550194019201610d1c565b600284016000526020600020601f830160051c81019160208410610db3575b601f0160051c01905b818110610da75750610a6e565b60008155600101610d9a565b9091508190610d91565b015190508680610a30565b600186016000908152602081209350601f198516905b818110610e1d5750908460019594939210610e04575b505050811b016001830155610a48565b015160001960f88460031b161c19169055868080610df4565b92936020600181928786015181550195019301610dde565b909150600185016000526020600020601f840160051c810160208510610e81575b90849392915b601f830160051c82018110610e72575050610a19565b60008155859450600101610e5c565b5080610e56565b0151905087806109db565b6000878152602081209350601f198516905b818110610ee15750908460019594939210610ec8575b505050811b0183556109f0565b015160001960f88460031b161c19169055878080610ebb565b92936020600181928786015181550195019301610ea5565b909150856000526020600020601f840160051c810160208510610f42575b90849392915b601f830160051c82018110610f335750506109c4565b60008155859450600101610f1d565b5080610f17565b60405162461bcd60e51b815260206004820152601860248201527f41737369676e6d656e74206973206e6f742061637469766500000000000000006044820152606490fd5b346107ba5760203660031901126107ba57600435610faf60015482106113b8565b60005260006020526040600020604051610fc881611201565b610fd18261123e565b815261080f610fe26001840161123e565b9160208101928352610ff66002850161123e565b936040820194855261100a6003820161123e565b906060830191825261101e6004820161123e565b80608085015260066005830154928360a087015201549260ff60018060a01b038516948560c088015260a01c161515948560e08201525196519751905190604051988998896112e4565b346107ba5760203660031901126107ba57600435600052600060205260406000206110928161123e565b9061080f6110a26001830161123e565b916110af6002820161123e565b936110bc6003830161123e565b916110c96004820161123e565b600660058301549201549360405197889760ff8760a01c169660018060a01b031695896112e4565b346107ba5760003660031901126107ba576020600154604051908152f35b346107ba5760203660031901126107ba5760043561113060015482106113b8565b600052600060205261080f6107fb600260406000200161123e565b346107ba5760203660031901126107ba5760043561116c60015482106113b8565b600052600060205261080f6107fb600460406000200161123e565b919082519283825260005b8481106111b3575050826000602080949584010152601f8019910116010190565b602081830181015184830182015201611192565b90600182811c921680156111f7575b60208310146111e157565b634e487b7160e01b600052602260045260246000fd5b91607f16916111d6565b61010081019081106001600160401b0382111761049357604052565b90601f801991011681019081106001600160401b0382111761049357604052565b9060405191826000825492611252846111c7565b9081845260019485811690816000146112c1575060011461127e575b505061127c9250038361121d565b565b9093915060005260209081600020936000915b8183106112a957505061127c9350820101388061126e565b85548884018501529485019487945091830191611291565b91505061127c94506020925060ff191682840152151560051b820101388061126e565b96936113296113459461131b60e0999c9b989561130d611337968d610100908181520190611187565b8c810360208e015290611187565b908a820360408c0152611187565b9088820360608a0152611187565b908682036080880152611187565b60a08501969096526001600160a01b031660c08401521515910152565b81601f820112156107ba578035906001600160401b0382116104935760405192611396601f8401601f19166020018561121d565b828452602083830101116107ba57816000926020809301838601378301015290565b156113bf57565b60405162461bcd60e51b815260206004820152601960248201527f41737369676e6d656e7420646f6573206e6f74206578697374000000000000006044820152606490fd5b1561140b57565b60405162461bcd60e51b815260206004820152601760248201527f4f6e6c792063726561746f722063616e206d6f646966790000000000000000006044820152606490fdfea2646970667358221220d5ce9cf8aff108b321f8814de0aeb0c74c6aa20adf111c9f6a6b2df6985be2fd64736f6c63430008130033",
  "linkReferences": {},
  "deployedLinkReferences": {}
}