{
  "_format": "hh-sol-artifact-1",
  "contractName": "Mentora",
  "sourceName": "contracts/Mentora.sol",
  "abi": [
    {
      "inputs": [
        {
          "internalType": "uint256",
          "name": "_platformFeePercent",
          "type": "uint256"
        }
      ],
      "stateMutability": "nonpayable",
      "type": "constructor"
    },
    {
      "anonymous": false,
      "inputs": [
        {
          "indexed": false,
          "internalType": "uint256",
          "name": "courseId",
          "type": "uint256"
        },
        {
          "indexed": false,
          "internalType": "uint256",
          "name": "moduleCount",
          "type": "uint256"
        }
      ],
      "name": "CourseContentUpdated",
      "type": "event"
    },
    {
      "anonymous": false,
      "inputs": [
        {
          "indexed": false,
          "internalType": "uint256",
          "name": "courseId",
          "type": "uint256"
        },
        {
          "indexed": false,
          "internalType": "string",
          "name": "title",
          "type": "string"
        },
        {
          "indexed": false,
          "internalType": "address",
          "name": "creator",
          "type": "address"
        },
        {
          "indexed": false,
          "internalType": "uint256",
          "name": "price",
          "type": "uint256"
        }
      ],
      "name": "CourseCreated",
      "type": "event"
    },
    {
      "anonymous": false,
      "inputs": [
        {
          "indexed": false,
          "internalType": "uint256",
          "name": "courseId",
          "type": "uint256"
        }
      ],
      "name": "CourseDelisted",
      "type": "event"
    },
    {
      "anonymous": false,
      "inputs": [
        {
          "indexed": false,
          "internalType": "uint256",
          "name": "courseId",
          "type": "uint256"
        },
        {
          "indexed": false,
          "internalType": "address",
          "name": "buyer",
          "type": "address"
        },
        {
          "indexed": false,
          "internalType": "uint256",
          "name": "price",
          "type": "uint256"
        }
      ],
      "name": "CoursePurchased",
      "type": "event"
    },
    {
      "anonymous": false,
      "inputs": [
        {
          "indexed": false,
          "internalType": "uint256",
          "name": "courseId",
          "type": "uint256"
        },
        {
          "indexed": false,
          "internalType": "string",
          "name": "title",
          "type": "string"
        },
        {
          "indexed": false,
          "internalType": "uint256",
          "name": "price",
          "type": "uint256"
        },
        {
          "indexed": false,
          "internalType": "bool",
          "name": "isActive",
          "type": "bool"
        }
      ],
      "name": "CourseUpdated",
      "type": "event"
    },
    {
      "anonymous": false,
      "inputs": [
        {
          "indexed": false,
          "internalType": "address",
          "name": "creator",
          "type": "address"
        },
        {
          "indexed": false,
          "internalType": "uint256",
          "name": "amount",
          "type": "uint256"
        }
      ],
      "name": "CreatorWithdrawal",
      "type": "event"
    },
    {
      "anonymous": false,
      "inputs": [
        {
          "indexed": false,
          "internalType": "uint256",
          "name": "courseId",
          "type": "uint256"
        },
        {
          "indexed": false,
          "internalType": "uint256",
          "name": "moduleIndex",
          "type": "uint256"
        },
        {
          "indexed": false,
          "internalType": "uint256",
          "name": "materialIndex",
          "type": "uint256"
        }
      ],
      "name": "MaterialAdded",
      "type": "event"
    },
    {
      "anonymous": false,
      "inputs": [
        {
          "indexed": false,
          "internalType": "uint256",
          "name": "courseId",
          "type": "uint256"
        },
        {
          "indexed": false,
          "internalType": "uint256",
          "name": "moduleIndex",
          "type": "uint256"
        },
        {
          "indexed": false,
          "internalType": "string",
          "name": "moduleTitle",
          "type": "string"
        }
      ],
      "name": "ModuleAdded",
      "type": "event"
    },
    {
      "anonymous": false,
      "inputs": [
        {
          "indexed": false,
          "internalType": "uint256",
          "name": "courseId",
          "type": "uint256"
        },
        {
          "indexed": false,
          "internalType": "address",
          "name": "buyer",
          "type": "address"
        },
        {
          "indexed": false,
          "internalType": "uint256",
          "name": "amount",
          "type": "uint256"
        }
      ],
      "name": "RefundProcessed",
      "type": "event"
    },
    {
      "anonymous": false,
      "inputs": [
        {
          "indexed": false,
          "internalType": "uint256",
          "name": "courseId",
          "type": "uint256"
        },
        {
          "indexed": false,
          "internalType": "address",
          "name": "buyer",
          "type": "address"
        }
      ],
      "name": "RefundRequested",
      "type": "event"
    },
    {
      "inputs": [
        {
          "internalType": "uint256",
          "name": "_newFeePercent",
          "type": "uint256"
        }
      ],
      "name": "changePlatformFee",
      "outputs": [],
      "stateMutability": "nonpayable",
      "type": "function"
    },
    {
      "inputs": [],
      "name": "courseCounter",
      "outputs": [
        {
          "internalType": "uint256",
          "name": "",
          "type": "uint256"
        }
      ],
      "stateMutability": "view",
      "type": "function"
    },
    {
      "inputs": [
        {
          "internalType": "uint256",
          "name": "",
          "type": "uint256"
        }
      ],
      "name": "courses",
      "outputs": [
        {
          "internalType": "uint256",
          "name": "id",
          "type": "uint256"
        },
        {
          "internalType": "string",
          "name": "title",
          "type": "string"
        },
        {
          "internalType": "string",
          "name": "description",
          "type": "string"
        },
        {
          "internalType": "string",
          "name": "category",
          "type": "string"
        },
        {
          "internalType": "uint256",
          "name": "difficulty",
          "type": "uint256"
        },
        {
          "internalType": "string",
          "name": "thumbnailIpfsHash",
          "type": "string"
        },
        {
          "internalType": "address",
          "name": "creator",
          "type": "address"
        },
        {
          "internalType": "uint256",
          "name": "price",
          "type": "uint256"
        },
        {
          "internalType": "bool",
          "name": "isActive",
          "type": "bool"
        },
        {
          "internalType": "uint256",
          "name": "totalSales",
          "type": "uint256"
        },
        {
          "internalType": "uint256",
          "name": "totalRevenue",
          "type": "uint256"
        },
        {
          "internalType": "uint256",
          "name": "moduleCount",
          "type": "uint256"
        },
        {
          "internalType": "uint256",
          "name": "enrolledUsers",
          "type": "uint256"
        },
        {
          "internalType": "uint256",
          "name": "duration",
          "type": "uint256"
        }
      ],
      "stateMutability": "view",
      "type": "function"
    },
    {
      "inputs": [
        {
          "internalType": "string",
          "name": "_title",
          "type": "string"
        },
        {
          "internalType": "string",
          "name": "_description",
          "type": "string"
        },
        {
          "internalType": "string",
          "name": "_category",
          "type": "string"
        },
        {
          "internalType": "string",
          "name": "_thumbnailIpfsHash",
          "type": "string"
        },
        {
          "internalType": "string",
          "name": "_contentIpfsHash",
          "type": "string"
        },
        {
          "internalType": "uint256",
          "name": "_difficulty",
          "type": "uint256"
        },
        {
          "internalType": "uint256",
          "name": "_duration",
          "type": "uint256"
        },
        {
          "internalType": "uint256",
          "name": "_price",
          "type": "uint256"
        },
        {
          "internalType": "uint256",
          "name": "_moduleCount",
          "type": "uint256"
        }
      ],
      "name": "createCourse",
      "outputs": [],
      "stateMutability": "nonpayable",
      "type": "function"
    },
    {
      "inputs": [
        {
          "internalType": "address",
          "name": "",
          "type": "address"
        }
      ],
      "name": "creatorBalance",
      "outputs": [
        {
          "internalType": "uint256",
          "name": "",
          "type": "uint256"
        }
      ],
      "stateMutability": "view",
      "type": "function"
    },
    {
      "inputs": [
        {
          "internalType": "address",
          "name": "",
          "type": "address"
        },
        {
          "internalType": "uint256",
          "name": "",
          "type": "uint256"
        }
      ],
      "name": "creatorCourseIds",
      "outputs": [
        {
          "internalType": "uint256",
          "name": "",
          "type": "uint256"
        }
      ],
      "stateMutability": "view",
      "type": "function"
    },
    {
      "inputs": [],
      "name": "creatorWithdraw",
      "outputs": [],
      "stateMutability": "nonpayable",
      "type": "function"
    },
    {
      "inputs": [
        {
          "internalType": "uint256",
          "name": "_courseId",
          "type": "uint256"
        }
      ],
      "name": "delistCourse",
      "outputs": [],
      "stateMutability": "nonpayable",
      "type": "function"
    },
    {
      "inputs": [
        {
          "internalType": "uint256",
          "name": "_courseId",
          "type": "uint256"
        }
      ],
      "name": "getCourseContent",
      "outputs": [
        {
          "internalType": "string",
          "name": "",
          "type": "string"
        }
      ],
      "stateMutability": "view",
      "type": "function"
    },
    {
      "inputs": [
        {
          "internalType": "uint256",
          "name": "_courseId",
          "type": "uint256"
        }
      ],
      "name": "getCourseInfo",
      "outputs": [
        {
          "internalType": "uint256",
          "name": "id",
          "type": "uint256"
        },
        {
          "internalType": "string",
          "name": "title",
          "type": "string"
        },
        {
          "internalType": "string",
          "name": "description",
          "type": "string"
        },
        {
          "internalType": "string",
          "name": "category",
          "type": "string"
        },
        {
          "internalType": "string",
          "name": "thumbnailIpfsHash",
          "type": "string"
        },
        {
          "internalType": "uint256",
          "name": "difficulty",
          "type": "uint256"
        },
        {
          "internalType": "uint256",
          "name": "duration",
          "type": "uint256"
        }
      ],
      "stateMutability": "view",
      "type": "function"
    },
    {
      "inputs": [
        {
          "internalType": "uint256",
          "name": "_courseId",
          "type": "uint256"
        }
      ],
      "name": "getCoursePreview",
      "outputs": [
        {
          "internalType": "string",
          "name": "",
          "type": "string"
        }
      ],
      "stateMutability": "view",
      "type": "function"
    },
    {
      "inputs": [
        {
          "internalType": "uint256",
          "name": "_courseId",
          "type": "uint256"
        }
      ],
      "name": "getCourseStats",
      "outputs": [
        {
          "internalType": "address",
          "name": "creator",
          "type": "address"
        },
        {
          "internalType": "bool",
          "name": "isActive",
          "type": "bool"
        },
        {
          "internalType": "uint256",
          "name": "price",
          "type": "uint256"
        },
        {
          "internalType": "uint256",
          "name": "totalSales",
          "type": "uint256"
        },
        {
          "internalType": "uint256",
          "name": "moduleCount",
          "type": "uint256"
        },
        {
          "internalType": "uint256",
          "name": "enrolledUsers",
          "type": "uint256"
        }
      ],
      "stateMutability": "view",
      "type": "function"
    },
    {
      "inputs": [
        {
          "internalType": "address",
          "name": "_creator",
          "type": "address"
        }
      ],
      "name": "getCreatorCourseCount",
      "outputs": [
        {
          "internalType": "uint256",
          "name": "",
          "type": "uint256"
        }
      ],
      "stateMutability": "view",
      "type": "function"
    },
    {
      "inputs": [
        {
          "internalType": "address",
          "name": "_user",
          "type": "address"
        }
      ],
      "name": "getUserCourseCount",
      "outputs": [
        {
          "internalType": "uint256",
          "name": "",
          "type": "uint256"
        }
      ],
      "stateMutability": "view",
      "type": "function"
    },
    {
      "inputs": [
        {
          "internalType": "address",
          "name": "_user",
          "type": "address"
        },
        {
          "internalType": "uint256",
          "name": "_courseId",
          "type": "uint256"
        }
      ],
      "name": "hasUserPurchasedCourse",
      "outputs": [
        {
          "internalType": "bool",
          "name": "",
          "type": "bool"
        }
      ],
      "stateMutability": "view",
      "type": "function"
    },
    {
      "inputs": [],
      "name": "owner",
      "outputs": [
        {
          "internalType": "address",
          "name": "",
          "type": "address"
        }
      ],
      "stateMutability": "view",
      "type": "function"
    },
    {
      "inputs": [],
      "name": "ownerWithdraw",
      "outputs": [],
      "stateMutability": "nonpayable",
      "type": "function"
    },
    {
      "inputs": [],
      "name": "platformFeePercent",
      "outputs": [
        {
          "internalType": "uint256",
          "name": "",
          "type": "uint256"
        }
      ],
      "stateMutability": "view",
      "type": "function"
    },
    {
      "inputs": [
        {
          "internalType": "uint256",
          "name": "_courseId",
          "type": "uint256"
        },
        {
          "internalType": "address",
          "name": "_buyer",
          "type": "address"
        }
      ],
      "name": "processRefund",
      "outputs": [],
      "stateMutability": "nonpayable",
      "type": "function"
    },
    {
      "inputs": [
        {
          "internalType": "uint256",
          "name": "_courseId",
          "type": "uint256"
        }
      ],
      "name": "purchaseCourse",
      "outputs": [],
      "stateMutability": "payable",
      "type": "function"
    },
    {
      "inputs": [
        {
          "internalType": "uint256",
          "name": "_courseId",
          "type": "uint256"
        }
      ],
      "name": "requestRefund",
      "outputs": [],
      "stateMutability": "nonpayable",
      "type": "function"
    },
    {
      "inputs": [
        {
          "internalType": "uint256",
          "name": "_courseId",
          "type": "uint256"
        },
        {
          "internalType": "string",
          "name": "_title",
          "type": "string"
        },
        {
          "internalType": "string",
          "name": "_description",
          "type": "string"
        },
        {
          "internalType": "string",
          "name": "_thumbnailIpfsHash",
          "type": "string"
        },
        {
          "internalType": "string",
          "name": "_contentIpfsHash",
          "type": "string"
        },
        {
          "internalType": "uint256",
          "name": "_price",
          "type": "uint256"
        },
        {
          "internalType": "bool",
          "name": "_isActive",
          "type": "bool"
        },
        {
          "internalType": "uint256",
          "name": "_moduleCount",
          "type": "uint256"
        }
      ],
      "name": "updateCourse",
      "outputs": [],
      "stateMutability": "nonpayable",
      "type": "function"
    },
    {
      "inputs": [
        {
          "internalType": "uint256",
          "name": "_courseId",
          "type": "uint256"
        },
        {
          "internalType": "string",
          "name": "_contentIpfsHash",
          "type": "string"
        },
        {
          "internalType": "uint256",
          "name": "_moduleCount",
          "type": "uint256"
        }
      ],
      "name": "updateCourseContent",
      "outputs": [],
      "stateMutability": "nonpayable",
      "type": "function"
    },
    {
      "inputs": [
        {
          "internalType": "uint256",
          "name": "_courseId",
          "type": "uint256"
        },
        {
          "internalType": "uint256",
          "name": "_materialCount",
          "type": "uint256"
        }
      ],
      "name": "updateMaterialCount",
      "outputs": [],
      "stateMutability": "nonpayable",
      "type": "function"
    },
    {
      "inputs": [
        {
          "internalType": "address",
          "name": "",
          "type": "address"
        },
        {
          "internalType": "uint256",
          "name": "",
          "type": "uint256"
        }
      ],
      "name": "userCourseIds",
      "outputs": [
        {
          "internalType": "uint256",
          "name": "",
          "type": "uint256"
        }
      ],
      "stateMutability": "view",
      "type": "function"
    },
    {
      "inputs": [
        {
          "internalType": "address",
          "name": "",
          "type": "address"
        },
        {
          "internalType": "uint256",
          "name": "",
          "type": "uint256"
        }
      ],
      "name": "userPurchases",
      "outputs": [
        {
          "internalType": "uint256",
          "name": "courseId",
          "type": "uint256"
        },
        {
          "internalType": "uint256",
          "name": "purchaseDate",
          "type": "uint256"
        },
        {
          "internalType": "bool",
          "name": "refundRequested",
          "type": "bool"
        },
        {
          "internalType": "bool",
          "name": "refunded",
          "type": "bool"
        }
      ],
      "stateMutability": "view",
      "type": "function"
    }
  ],
  "bytecode": "0x60803461006657601f6126fe38819003918201601f19168301916001600160401b0383118484101761006b578084926020946040528339810103126100665751600080546001600160a01b0319163317815560015560025560405161267c90816100828239f35b600080fd5b634e487b7160e01b600052604160045260246000fdfe6080604052600436101561001257600080fd5b60003560e01c80630dba2e541461205957806327d611bd14611f5b57806342e4671914611ed45780634311de8f14611e325780634b9e76a714611c0757806356874eb114611bcd578063598bfeb714611b3457806364ec8bdb14611aa557806382216fbd14611a875780638c639a8514611a695780638da5cb5b14611a405780639165ce36146119f657806393cb41b7146117f057806396f979d2146116cd578063981059ee146115f1578063a4b2409e1461148d578063b9d4eaa31461141e578063ba6ce0f4146113bc578063cd131938146110e1578063ceeeeb8514610a9a578063cf08ca6314610a42578063cf2c0334146109d1578063d7a5791a1461095e578063e6cd7ab614610924578063edf7342b146108ea5763ff10f25c1461013a57600080fd5b346108e5576101203660031901126108e5576004356001600160401b0381116108e55761016b90369060040161218f565b6024356001600160401b0381116108e55761018a90369060040161218f565b906044356001600160401b0381116108e5576101aa90369060040161218f565b906064356001600160401b0381116108e5576101ca90369060040161218f565b926084356001600160401b0381116108e5576101ea90369060040161218f565b926101f7835115156122c5565b61020385511515612309565b61020f84511515612361565b61021c60e43515156123b7565b610227600154612403565b9182600155826000526003602052604060002092835583516001600160401b0381116105af5761025a60018501546121e5565b601f811161089e575b50806020601f821160011461083157600091610826575b508160011b916000199060031b1c19161760018401555b8051906001600160401b0382116105af5781906102b160028601546121e5565b601f81116107d3575b50602090601f831160011461076157600092610756575b50508160011b916000199060031b1c19161760028301555b8051906001600160401b0382116105af57819061030960038501546121e5565b601f8111610703575b50602090601f831160011461069157600092610686575b50508160011b916000199060031b1c19161760038201555b83516001600160401b0381116105af5761035e60058301546121e5565b601f811161063f575b506020601f82116001146105d05781929394956000926105c5575b50508160011b916000199060031b1c19161760058201555b60a435600482015560068101336bffffffffffffffffffffffff60a01b82541617905560e435600782015560088101600160ff19825416179055600060098201556000600a82015561010435600b8201556000600c820155600d60c43591015560015460005260046020526040600020918051906001600160401b0382116105af5761042684546121e5565b601f8111610567575b50602090601f83116001146104db5793826000936001937f48ecb80c764507d9b513e5fbdba76e8b8177d246e4314b2718204d1027f996739786926104d0575b505081841b9185199060031b1c19161781555b015533600052600760205261049e604060002060015490612412565b6001546104bd60405192839283526080602084015260808301906120ea565b33604083015260e43560608301520390a1005b01519050388061046f565b90601f198316918560005260206000209260005b81811061054f5750936001937f48ecb80c764507d9b513e5fbdba76e8b8177d246e4314b2718204d1027f99673979385938360009810610537575b505050811b018155610482565b0151861960f88460031b161c1916905538808061052a565b929360206001819287860151815501950193016104ef565b846000526020600020601f840160051c810191602085106105a5575b601f0160051c01905b818110610599575061042f565b6000815560010161058c565b9091508190610583565b634e487b7160e01b600052604160045260246000fd5b015190503880610382565b6005830160005260206000209060005b601f1984168110610627575060019394959683601f1981161061060e575b505050811b01600582015561039a565b015160001960f88460031b161c191690553880806105fe565b9091602060018192858b0151815501930191016105e0565b600583016000526020600020601f830160051c81016020841061067f575b601f830160051c82018110610673575050610367565b6000815560010161065d565b508061065d565b015190503880610329565b9250600384016000526020600020906000935b601f19841685106106e8576001945083601f198116106106cf575b505050811b016003820155610341565b015160001960f88460031b161c191690553880806106bf565b818101518355602094850194600190930192909101906106a4565b909150600384016000526020600020601f840160051c81016020851061074f575b90849392915b601f830160051c82018110610740575050610312565b6000815585945060010161072a565b5080610724565b0151905038806102d1565b9250600285016000526020600020906000935b601f19841685106107b8576001945083601f1981161061079f575b505050811b0160028301556102e9565b015160001960f88460031b161c1916905538808061078f565b81810151835560209485019460019093019290910190610774565b909150600285016000526020600020601f840160051c81016020851061081f575b90849392915b601f830160051c820181106108105750506102ba565b600081558594506001016107fa565b50806107f4565b90508501513861027a565b91506001850160005260206000206000925b601f1983168410610886576001935082601f1981161061086d575b5050811b016001840155610291565b87015160001960f88460031b161c19169055388061085e565b87810151825560209384019360019092019101610843565b600185016000526020600020601f830160051c8101602084106108de575b601f830160051c820181106108d2575050610263565b600081556001016108bc565b50806108bc565b600080fd5b346108e55760203660031901126108e5576001600160a01b0361090b61212a565b1660005260066020526020604060002054604051908152f35b346108e55760203660031901126108e5576001600160a01b0361094561212a565b1660005260086020526020604060002054604051908152f35b346108e55760203660031901126108e55760043561098760018060a01b0360005416331461259e565b601e811161099457600255005b60405162461bcd60e51b81526020600482015260156024820152744665652063616e6e6f74206578636565642033302560581b6044820152606490fd5b346108e55760403660031901126108e5576001600160a01b036109f261212a565b16600052600560205260406000206024356000526020526080604060002060ff815491600260018201549101549060405193845260208401528181161515604084015260081c1615156060820152f35b346108e55760403660031901126108e557610a5b61212a565b6001600160a01b03166000908152600760205260409020805460243591908210156108e557602091610a8c91612140565b90546040519160031b1c8152f35b346108e5576101003660031901126108e5576024356001600160401b0381116108e557610acb90369060040161218f565b6044356001600160401b0381116108e557610aea90369060040161218f565b906064356001600160401b0381116108e557610b0a90369060040161218f565b916084356001600160401b0381116108e557610b2a90369060040161218f565b9060c435151560c435036108e5576004351515806110d3575b610b4c9061244c565b6004356000526003602052610b7260018060a01b03600660406000200154163314612490565b610b7e835115156122c5565b610b8a84511515612309565b610b9682511515612361565b610ba360a43515156123b7565b600435600052600360205260406000209083516001600160401b0381116105af57610bd160018401546121e5565b601f811161108c575b50806020601f821160011461101f57600091611014575b508160011b916000199060031b1c19161760018301555b8051906001600160401b0382116105af578190610c2860028501546121e5565b601f8111610fc1575b50602090601f8311600114610f4f57600092610f44575b50508160011b916000199060031b1c19161760028201555b83516001600160401b0381116105af57610c7d60058301546121e5565b601f8111610efd575b506020601f8211600114610e8e578192939495600092610e83575b50508160011b916000199060031b1c19161760058201555b60a4356007820155610cdc60c435600883019060ff801983541691151516179055565b600b60e43591015560043560005260046020526040600020908051906001600160401b0382116105af57610d1083546121e5565b601f8111610e3b575b50602090601f8311600114610dad579180610d8b94927f2a862fb735381b2e519f2392b5deecb8239b129cc07879a1cce4f542c01cb59e9694600092610da2575b50508160011b916000199060031b1c19161790555b60405191829160043583526080602084015260808301906120ea565b60a435604083015260c435151560608301520390a1005b015190508680610d5a565b90601f198316918460005260206000209260005b818110610e2357509260019285927f2a862fb735381b2e519f2392b5deecb8239b129cc07879a1cce4f542c01cb59e9896610d8b989610610e0a575b505050811b019055610d6f565b015160001960f88460031b161c19169055868080610dfd565b92936020600181928786015181550195019301610dc1565b836000526020600020601f840160051c81019160208510610e79575b601f0160051c01905b818110610e6d5750610d19565b60008155600101610e60565b9091508190610e57565b015190508580610ca1565b6005830160005260206000209060005b601f1984168110610ee5575060019394959683601f19811610610ecc575b505050811b016005820155610cb9565b015160001960f88460031b161c19169055858080610ebc565b9091602060018192858b015181550193019101610e9e565b600583016000526020600020601f830160051c810160208410610f3d575b601f830160051c82018110610f31575050610c86565b60008155600101610f1b565b5080610f1b565b015190508680610c48565b9250600284016000526020600020906000935b601f1984168510610fa6576001945083601f19811610610f8d575b505050811b016002820155610c60565b015160001960f88460031b161c19169055868080610f7d565b81810151835560209485019460019093019290910190610f62565b909150600284016000526020600020601f840160051c81016020851061100d575b90849392915b601f830160051c82018110610ffe575050610c31565b60008155859450600101610fe8565b5080610fe2565b905085015187610bf1565b91506001840160005260206000206000925b601f1983168410611074576001935082601f1981161061105b575b5050811b016001830155610c08565b87015160001960f88460031b161c19169055878061104c565b87810151825560209384019360019092019101611031565b600184016000526020600020601f830160051c8101602084106110cc575b601f830160051c820181106110c0575050610bda565b600081556001016110aa565b50806110aa565b506001546004351115610b43565b6020806003193601126108e557600435801515806113b0575b6111039061244c565b806000526003825260ff6008604060002001541615611374578060005260038252604060002091600783019283549081341061133857336000526005835260406000208460005283526001604060002001546112f357611171606461116a600254856124ef565b0483612502565b91600982016111808154612403565b9055611191600a830191825461250f565b9055600c81016111a18154612403565b9055600601546001600160a01b031660009081526008835260409020805490916111ca9161250f565b90556040519060808201918083106001600160401b038411176105af576006926040528381528181014281526112466002604084019360008552606081019360008552336000526005875260406000208960005287526040600020915182555160018201550192511515839060ff801983541691151516179055565b51151561ff0082549160081b169061ff001916179055336000525261126f816040600020612412565b81548034116112b9575b509054604080519283523360208401528201527f6d846848ed199e5a5cc3af1d2846d9e5aa7d59c948360982923973138cbc241b9080606081015b0390a1005b600080806112c8819434612502565b8181156112ea575b3390f1156112de5782611279565b6040513d6000823e3d90fd5b506108fc6112d0565b60405162461bcd60e51b815260048101849052601860248201527f436f7572736520616c72656164792070757263686173656400000000000000006044820152606490fd5b60405162461bcd60e51b8152600481018490526014602482015273125b9cdd59999a58da595b9d081c185e5b595b9d60621b6044820152606490fd5b60405162461bcd60e51b8152600481018390526014602482015273436f75727365206973206e6f742061637469766560601b6044820152606490fd5b506001548111156110fa565b346108e55760203660031901126108e55760043580151580611412575b6113e29061244c565b600052600460205261140e6113fa604060002061221f565b6040519182916020835260208301906120ea565b0390f35b506001548111156113d9565b346108e55760403660031901126108e55760043580151580611481575b6114449061244c565b80600052600360205261146860018060a01b03600660406000200154163314612490565b6000526004602052602435600160406000200155600080f35b5060015481111561143b565b346108e5576020806003193601126108e55760043590811515806115e5575b6114b59061244c565b33600052600581526040600020826000528152604060002060026001820154916114e083151561251c565b019081549060ff82166115a0576114fd60ff8360081c161561255f565b62278d00810180911161158a57421161154d5760ff191660011790556040805192835233918301919091527fd8420f97dab0b820e066ebfad617848c1eab2d260922358cc1d5cdcdc568d57291a1005b60405162461bcd60e51b81526004810184905260156024820152741499599d5b99081c195c9a5bd908195e1c1a5c9959605a1b6044820152606490fd5b634e487b7160e01b600052601160045260246000fd5b60405162461bcd60e51b815260048101859052601860248201527f526566756e6420616c72656164792072657175657374656400000000000000006044820152606490fd5b506001548211156114ac565b346108e55760203660031901126108e557600435801515806116c1575b6116179061244c565b6000526003602052604060002080546004820154600d8301546116b261163f6001860161221f565b946116a461164f6002830161221f565b9161169661166b60056116646003850161221f565b930161221f565b936116886040519a8b9a8b5260e060208c015260e08b01906120ea565b9089820360408b01526120ea565b9087820360608901526120ea565b9085820360808701526120ea565b9160a084015260c08301520390f35b5060015481111561160e565b346108e55760203660031901126108e557600435600052600360205260406000208054600182016116fd9061221f565b9161170a6002820161221f565b6117166003830161221f565b600483015492906117296005830161221f565b93600160a01b60019003600684015416946007840154600885015460ff1690600986015492600a87015494600b88015496600c89015498600d0154996040519d8e9d8e528d6101c09081602082015201611782916120ea565b8d810360408f0152611793916120ea565b8c810360608e01526117a4916120ea565b9060808c01528a810360a08c01526117bb916120ea565b9760c08a015260e089015215156101008801526101208701526101408601526101608501526101808401526101a08301520390f35b346108e55760603660031901126108e5576004356001600160401b036024358181116108e55761182490369060040161218f565b60443591831515806119ea575b61183a9061244c565b836000526020916003835261186060018060a01b03600660406000200154163314612490565b61186c81511515612361565b84600052600383526040600020916004845260406000209180519182116105af5761189783546121e5565b601f81116119a4575b508490601f831160011461191357937f7087434e8d3e617b4d748be05dd310575f0aeaf40203852317b00a4fa4bbf71997959383889694600b9460409a96600092611908575b50508160011b916000199060031b1c19161790555b01558351928352820152a1005b015190508b806118e6565b90601f1983169184600052866000209260005b81811061198d575084600b948a98947f7087434e8d3e617b4d748be05dd310575f0aeaf40203852317b00a4fa4bbf7199c9a989460409c9860019510611974575b505050811b0190556118fb565b015160001960f88460031b161c191690558b8080611967565b929388600181928786015181550195019301611926565b8360005285600020601f840160051c8101918785106119e0575b601f0160051c01905b8181106119d457506118a0565b600081556001016119c7565b90915081906119be565b50600154841115611831565b346108e55760403660031901126108e557611a0f61212a565b6001600160a01b03166000908152600660205260409020805460243591908210156108e557602091610a8c91612140565b346108e55760003660031901126108e5576000546040516001600160a01b039091168152602090f35b346108e55760003660031901126108e5576020600254604051908152f35b346108e55760003660031901126108e5576020600154604051908152f35b346108e55760003660031901126108e557336000526008602052604060002054808015611ad28115612601565b33600052600860205260006040812055600090611b2b575b600080809381933390f1156112de5760407f0d53b74a6cb6d1fbd9dc6dc1d7714036c7c6a3f48350103a7011041eb32a4c5e918151903382526020820152a1005b506108fc611aea565b346108e55760203660031901126108e5577f2808e4e54ef7d74542a34491d0678c27da2c5006cae2f1d6a70adbf0f35e1e71602060043580151580611bc1575b611b7d9061244c565b8060005260038252611ba060018060a01b03600660406000200154163314612490565b8060005260038252600860406000200160ff198154169055604051908152a1005b50600154811115611b74565b346108e55760203660031901126108e5576001600160a01b03611bee61212a565b1660005260076020526020604060002054604051908152f35b346108e55760403660031901126108e5576001600160a01b0360243581811691600435908383036108e557611c418160005416331461259e565b81151580611e26575b611c539061244c565b8360005260209360058552604060002083600052855260026040600020611c7f6001820154151561251c565b01805460ff811615611deb5760ff611c9b9160081c161561255f565b83600052600386526040600020926007840196611cc888546064611cc1600254836124ef565b0490612502565b9160068601541680600052600882528260406000205410611da657936000959193869593600887968796875252611d0460408620918254612502565b905561010061ff001982541617905560098201611d2181546125f4565b9055600c895492600a8101611d37858254612502565b905501611d4481546125f4565b9055828215611d9d575bf1156112de579154604080519384526001600160a01b039092166020840152908201527f79ff6a60b3e21b3630b207e2a7b0b50b69b197d3d7ca776108ed2afb8fbac8dc9080606081016112b4565b506108fc611d4e565b60405162461bcd60e51b815260048101839052601c60248201527f496e73756666696369656e742063726561746f722062616c616e6365000000006044820152606490fd5b60405162461bcd60e51b8152600481018890526013602482015272139bc81c99599d5b99081c995c5d595cdd1959606a1b6044820152606490fd5b50600154821115611c4a565b346108e55760003660031901126108e5576000546001600160a01b03908116611e5c33821461259e565b6001805447935b81831115611e9657600080808088888115611e7e8115612601565b8390611e8d575bf1156112de57005b506108fc611e85565b909193611ec7611ecd9186600052600860206003815285600660406000200154166000525260406000205490612502565b94612403565b9190611e63565b346108e55760403660031901126108e557611eed61212a565b6024359060018060a01b031680600052600560205260406000208260005260205260016040600020015415159081611f2d575b6020826040519015158152f35b90506000526005602052604060002090600052602052602060ff60026040600020015460081c161582611f20565b346108e5576020806003193601126108e5576004358015158061204d575b611f829061244c565b33600052600582526040600020816000528252600160406000200154151580612024575b15611fd45760005260048152611fbf604060002061221f565b9061140e6040519282849384528301906120ea565b60405162461bcd60e51b815260048101839052602260248201527f596f752068617665206e6f7420707572636861736564207468697320636f7572604482015261736560f01b6064820152608490fd5b503360005260058252604060002081600052825260ff60026040600020015460081c1615611fa6565b50600154811115611f79565b346108e55760203660031901126108e557600435801515806120de575b61207f9061244c565b600052600360205260c0604060002060018060a01b036006820154169060ff600882015416906007810154600982015490600c600b840154930154936040519586521515602086015260408501526060840152608083015260a0820152f35b50600154811115612076565b919082519283825260005b848110612116575050826000602080949584010152601f8019910116010190565b6020818301810151848301820152016120f5565b600435906001600160a01b03821682036108e557565b80548210156121585760005260206000200190600090565b634e487b7160e01b600052603260045260246000fd5b90601f801991011681019081106001600160401b038211176105af57604052565b81601f820112156108e5578035906001600160401b0382116105af57604051926121c3601f8401601f19166020018561216e565b828452602083830101116108e557816000926020809301838601378301015290565b90600182811c92168015612215575b60208310146121ff57565b634e487b7160e01b600052602260045260246000fd5b91607f16916121f4565b9060405191826000825492612233846121e5565b9081845260019485811690816000146122a2575060011461225f575b505061225d9250038361216e565b565b9093915060005260209081600020936000915b81831061228a57505061225d9350820101388061224f565b85548884018501529485019487945091830191612272565b91505061225d94506020925060ff191682840152151560051b820101388061224f565b156122cc57565b60405162461bcd60e51b81526020600482015260156024820152745469746c652063616e6e6f7420626520656d70747960581b6044820152606490fd5b1561231057565b60405162461bcd60e51b815260206004820152602360248201527f5468756d626e61696c204950465320686173682063616e6e6f7420626520656d60448201526270747960e81b6064820152608490fd5b1561236857565b60405162461bcd60e51b815260206004820152602160248201527f436f6e74656e74204950465320686173682063616e6e6f7420626520656d70746044820152607960f81b6064820152608490fd5b156123be57565b60405162461bcd60e51b815260206004820152601f60248201527f5072696365206d7573742062652067726561746572207468616e207a65726f006044820152606490fd5b600019811461158a5760010190565b8054680100000000000000008110156105af5761243491600182018155612140565b819291549060031b91821b91600019901b1916179055565b1561245357565b60405162461bcd60e51b815260206004820152601560248201527410dbdd5c9cd948191bd95cc81b9bdd08195e1a5cdd605a1b6044820152606490fd5b1561249757565b60405162461bcd60e51b815260206004820152602a60248201527f4f6e6c7920636f757273652063726561746f722063616e206d6f64696679207460448201526968697320636f7572736560b01b6064820152608490fd5b8181029291811591840414171561158a57565b9190820391821161158a57565b9190820180921161158a57565b1561252357565b60405162461bcd60e51b815260206004820152601460248201527310dbdd5c9cd9481b9bdd081c1d5c98da185cd95960621b6044820152606490fd5b1561256657565b60405162461bcd60e51b815260206004820152601060248201526f105b1c9958591e481c99599d5b99195960821b6044820152606490fd5b156125a557565b60405162461bcd60e51b815260206004820152602160248201527f4f6e6c79206f776e65722063616e2063616c6c20746869732066756e6374696f6044820152603760f91b6064820152608490fd5b801561158a576000190190565b1561260857565b60405162461bcd60e51b81526020600482015260166024820152754e6f2062616c616e636520746f20776974686472617760501b6044820152606490fdfea2646970667358221220c1b061426e7c0161c46899a4218ba44e94886b1fac0cb56c3d0d14d740ec3bb764736f6c63430008130033",
  "linkReferences": {},
  "deployedLinkReferences": {}
}