{
  "_format": "hh-sol-artifact-1",
  "contractName": "Mentora",
  "sourceName": "contracts/Mentora.sol",
  "abi": [
    {
      "inputs": [
        {
          "internalType": "uint256",
          "name": "_platformFeePercent",
          "type": "uint256"
        }
      ],
      "stateMutability": "nonpayable",
      "type": "constructor"
    },
    {
      "anonymous": false,
      "inputs": [
        {
          "indexed": false,
          "internalType": "uint256",
          "name": "courseId",
          "type": "uint256"
        },
        {
          "indexed": false,
          "internalType": "uint256",
          "name": "moduleCount",
          "type": "uint256"
        }
      ],
      "name": "CourseContentUpdated",
      "type": "event"
    },
    {
      "anonymous": false,
      "inputs": [
        {
          "indexed": false,
          "internalType": "uint256",
          "name": "courseId",
          "type": "uint256"
        },
        {
          "indexed": false,
          "internalType": "string",
          "name": "title",
          "type": "string"
        },
        {
          "indexed": false,
          "internalType": "address",
          "name": "creator",
          "type": "address"
        },
        {
          "indexed": false,
          "internalType": "uint256",
          "name": "price",
          "type": "uint256"
        }
      ],
      "name": "CourseCreated",
      "type": "event"
    },
    {
      "anonymous": false,
      "inputs": [
        {
          "indexed": false,
          "internalType": "uint256",
          "name": "courseId",
          "type": "uint256"
        }
      ],
      "name": "CourseDelisted",
      "type": "event"
    },
    {
      "anonymous": false,
      "inputs": [
        {
          "indexed": false,
          "internalType": "uint256",
          "name": "courseId",
          "type": "uint256"
        },
        {
          "indexed": false,
          "internalType": "address",
          "name": "buyer",
          "type": "address"
        },
        {
          "indexed": false,
          "internalType": "uint256",
          "name": "price",
          "type": "uint256"
        }
      ],
      "name": "CoursePurchased",
      "type": "event"
    },
    {
      "anonymous": false,
      "inputs": [
        {
          "indexed": false,
          "internalType": "uint256",
          "name": "courseId",
          "type": "uint256"
        },
        {
          "indexed": false,
          "internalType": "string",
          "name": "title",
          "type": "string"
        },
        {
          "indexed": false,
          "internalType": "uint256",
          "name": "price",
          "type": "uint256"
        },
        {
          "indexed": false,
          "internalType": "bool",
          "name": "isActive",
          "type": "bool"
        }
      ],
      "name": "CourseUpdated",
      "type": "event"
    },
    {
      "anonymous": false,
      "inputs": [
        {
          "indexed": false,
          "internalType": "address",
          "name": "creator",
          "type": "address"
        },
        {
          "indexed": false,
          "internalType": "uint256",
          "name": "amount",
          "type": "uint256"
        }
      ],
      "name": "CreatorWithdrawal",
      "type": "event"
    },
    {
      "anonymous": false,
      "inputs": [
        {
          "indexed": false,
          "internalType": "uint256",
          "name": "courseId",
          "type": "uint256"
        },
        {
          "indexed": false,
          "internalType": "uint256",
          "name": "moduleIndex",
          "type": "uint256"
        },
        {
          "indexed": false,
          "internalType": "uint256",
          "name": "materialIndex",
          "type": "uint256"
        }
      ],
      "name": "MaterialAdded",
      "type": "event"
    },
    {
      "anonymous": false,
      "inputs": [
        {
          "indexed": false,
          "internalType": "uint256",
          "name": "courseId",
          "type": "uint256"
        },
        {
          "indexed": false,
          "internalType": "uint256",
          "name": "moduleIndex",
          "type": "uint256"
        },
        {
          "indexed": false,
          "internalType": "string",
          "name": "moduleTitle",
          "type": "string"
        }
      ],
      "name": "ModuleAdded",
      "type": "event"
    },
    {
      "anonymous": false,
      "inputs": [
        {
          "indexed": false,
          "internalType": "uint256",
          "name": "courseId",
          "type": "uint256"
        },
        {
          "indexed": false,
          "internalType": "address",
          "name": "buyer",
          "type": "address"
        },
        {
          "indexed": false,
          "internalType": "uint256",
          "name": "amount",
          "type": "uint256"
        }
      ],
      "name": "RefundProcessed",
      "type": "event"
    },
    {
      "anonymous": false,
      "inputs": [
        {
          "indexed": false,
          "internalType": "uint256",
          "name": "courseId",
          "type": "uint256"
        },
        {
          "indexed": false,
          "internalType": "address",
          "name": "buyer",
          "type": "address"
        }
      ],
      "name": "RefundRequested",
      "type": "event"
    },
    {
      "inputs": [
        {
          "internalType": "uint256",
          "name": "_courseId",
          "type": "uint256"
        },
        {
          "internalType": "uint256",
          "name": "_moduleIndex",
          "type": "uint256"
        },
        {
          "internalType": "string",
          "name": "_materialIpfsHash",
          "type": "string"
        }
      ],
      "name": "addMaterial",
      "outputs": [],
      "stateMutability": "nonpayable",
      "type": "function"
    },
    {
      "inputs": [
        {
          "internalType": "uint256",
          "name": "_courseId",
          "type": "uint256"
        },
        {
          "internalType": "string",
          "name": "_moduleTitle",
          "type": "string"
        },
        {
          "internalType": "string",
          "name": "_moduleIpfsHash",
          "type": "string"
        }
      ],
      "name": "addModule",
      "outputs": [],
      "stateMutability": "nonpayable",
      "type": "function"
    },
    {
      "inputs": [
        {
          "internalType": "uint256",
          "name": "_newFeePercent",
          "type": "uint256"
        }
      ],
      "name": "changePlatformFee",
      "outputs": [],
      "stateMutability": "nonpayable",
      "type": "function"
    },
    {
      "inputs": [],
      "name": "courseCounter",
      "outputs": [
        {
          "internalType": "uint256",
          "name": "",
          "type": "uint256"
        }
      ],
      "stateMutability": "view",
      "type": "function"
    },
    {
      "inputs": [
        {
          "internalType": "uint256",
          "name": "",
          "type": "uint256"
        }
      ],
      "name": "courses",
      "outputs": [
        {
          "internalType": "uint256",
          "name": "id",
          "type": "uint256"
        },
        {
          "internalType": "string",
          "name": "title",
          "type": "string"
        },
        {
          "internalType": "string",
          "name": "description",
          "type": "string"
        },
        {
          "internalType": "string",
          "name": "category",
          "type": "string"
        },
        {
          "internalType": "uint256",
          "name": "difficulty",
          "type": "uint256"
        },
        {
          "internalType": "string",
          "name": "thumbnailIpfsHash",
          "type": "string"
        },
        {
          "internalType": "address",
          "name": "creator",
          "type": "address"
        },
        {
          "internalType": "uint256",
          "name": "price",
          "type": "uint256"
        },
        {
          "internalType": "bool",
          "name": "isActive",
          "type": "bool"
        },
        {
          "internalType": "uint256",
          "name": "totalSales",
          "type": "uint256"
        },
        {
          "internalType": "uint256",
          "name": "totalRevenue",
          "type": "uint256"
        },
        {
          "internalType": "uint256",
          "name": "moduleCount",
          "type": "uint256"
        },
        {
          "internalType": "uint256",
          "name": "enrolledUsers",
          "type": "uint256"
        },
        {
          "internalType": "uint256",
          "name": "duration",
          "type": "uint256"
        }
      ],
      "stateMutability": "view",
      "type": "function"
    },
    {
      "inputs": [
        {
          "internalType": "string",
          "name": "_title",
          "type": "string"
        },
        {
          "internalType": "string",
          "name": "_description",
          "type": "string"
        },
        {
          "internalType": "string",
          "name": "_category",
          "type": "string"
        },
        {
          "internalType": "string",
          "name": "_thumbnailIpfsHash",
          "type": "string"
        },
        {
          "internalType": "string",
          "name": "_introVideoIpfsHash",
          "type": "string"
        },
        {
          "internalType": "uint256",
          "name": "_difficulty",
          "type": "uint256"
        },
        {
          "internalType": "uint256",
          "name": "_duration",
          "type": "uint256"
        },
        {
          "internalType": "uint256",
          "name": "_price",
          "type": "uint256"
        }
      ],
      "name": "createCourse",
      "outputs": [],
      "stateMutability": "nonpayable",
      "type": "function"
    },
    {
      "inputs": [
        {
          "internalType": "address",
          "name": "",
          "type": "address"
        }
      ],
      "name": "creatorBalance",
      "outputs": [
        {
          "internalType": "uint256",
          "name": "",
          "type": "uint256"
        }
      ],
      "stateMutability": "view",
      "type": "function"
    },
    {
      "inputs": [
        {
          "internalType": "address",
          "name": "",
          "type": "address"
        },
        {
          "internalType": "uint256",
          "name": "",
          "type": "uint256"
        }
      ],
      "name": "creatorCourseIds",
      "outputs": [
        {
          "internalType": "uint256",
          "name": "",
          "type": "uint256"
        }
      ],
      "stateMutability": "view",
      "type": "function"
    },
    {
      "inputs": [],
      "name": "creatorWithdraw",
      "outputs": [],
      "stateMutability": "nonpayable",
      "type": "function"
    },
    {
      "inputs": [
        {
          "internalType": "uint256",
          "name": "_courseId",
          "type": "uint256"
        }
      ],
      "name": "delistCourse",
      "outputs": [],
      "stateMutability": "nonpayable",
      "type": "function"
    },
    {
      "inputs": [
        {
          "internalType": "uint256",
          "name": "_courseId",
          "type": "uint256"
        }
      ],
      "name": "getCourseInfo",
      "outputs": [
        {
          "internalType": "uint256",
          "name": "id",
          "type": "uint256"
        },
        {
          "internalType": "string",
          "name": "title",
          "type": "string"
        },
        {
          "internalType": "string",
          "name": "description",
          "type": "string"
        },
        {
          "internalType": "string",
          "name": "category",
          "type": "string"
        },
        {
          "internalType": "string",
          "name": "thumbnailIpfsHash",
          "type": "string"
        },
        {
          "internalType": "uint256",
          "name": "difficulty",
          "type": "uint256"
        },
        {
          "internalType": "uint256",
          "name": "duration",
          "type": "uint256"
        }
      ],
      "stateMutability": "view",
      "type": "function"
    },
    {
      "inputs": [
        {
          "internalType": "uint256",
          "name": "_courseId",
          "type": "uint256"
        }
      ],
      "name": "getCourseIntroVideo",
      "outputs": [
        {
          "internalType": "string",
          "name": "",
          "type": "string"
        }
      ],
      "stateMutability": "view",
      "type": "function"
    },
    {
      "inputs": [
        {
          "internalType": "uint256",
          "name": "_courseId",
          "type": "uint256"
        }
      ],
      "name": "getCourseStats",
      "outputs": [
        {
          "internalType": "address",
          "name": "creator",
          "type": "address"
        },
        {
          "internalType": "bool",
          "name": "isActive",
          "type": "bool"
        },
        {
          "internalType": "uint256",
          "name": "price",
          "type": "uint256"
        },
        {
          "internalType": "uint256",
          "name": "totalSales",
          "type": "uint256"
        },
        {
          "internalType": "uint256",
          "name": "moduleCount",
          "type": "uint256"
        },
        {
          "internalType": "uint256",
          "name": "enrolledUsers",
          "type": "uint256"
        }
      ],
      "stateMutability": "view",
      "type": "function"
    },
    {
      "inputs": [
        {
          "internalType": "address",
          "name": "_creator",
          "type": "address"
        }
      ],
      "name": "getCreatorCourseCount",
      "outputs": [
        {
          "internalType": "uint256",
          "name": "",
          "type": "uint256"
        }
      ],
      "stateMutability": "view",
      "type": "function"
    },
    {
      "inputs": [
        {
          "internalType": "uint256",
          "name": "_courseId",
          "type": "uint256"
        },
        {
          "internalType": "uint256",
          "name": "_materialIndex",
          "type": "uint256"
        }
      ],
      "name": "getMaterial",
      "outputs": [
        {
          "internalType": "string",
          "name": "",
          "type": "string"
        }
      ],
      "stateMutability": "view",
      "type": "function"
    },
    {
      "inputs": [
        {
          "internalType": "uint256",
          "name": "_courseId",
          "type": "uint256"
        }
      ],
      "name": "getModuleTitles",
      "outputs": [
        {
          "internalType": "string[]",
          "name": "",
          "type": "string[]"
        }
      ],
      "stateMutability": "view",
      "type": "function"
    },
    {
      "inputs": [
        {
          "internalType": "uint256",
          "name": "_courseId",
          "type": "uint256"
        },
        {
          "internalType": "uint256",
          "name": "_moduleIndex",
          "type": "uint256"
        }
      ],
      "name": "getModuleVideo",
      "outputs": [
        {
          "internalType": "string",
          "name": "",
          "type": "string"
        }
      ],
      "stateMutability": "view",
      "type": "function"
    },
    {
      "inputs": [
        {
          "internalType": "address",
          "name": "_user",
          "type": "address"
        }
      ],
      "name": "getUserCourseCount",
      "outputs": [
        {
          "internalType": "uint256",
          "name": "",
          "type": "uint256"
        }
      ],
      "stateMutability": "view",
      "type": "function"
    },
    {
      "inputs": [
        {
          "internalType": "address",
          "name": "_user",
          "type": "address"
        },
        {
          "internalType": "uint256",
          "name": "_courseId",
          "type": "uint256"
        }
      ],
      "name": "hasUserPurchasedCourse",
      "outputs": [
        {
          "internalType": "bool",
          "name": "",
          "type": "bool"
        }
      ],
      "stateMutability": "view",
      "type": "function"
    },
    {
      "inputs": [],
      "name": "owner",
      "outputs": [
        {
          "internalType": "address",
          "name": "",
          "type": "address"
        }
      ],
      "stateMutability": "view",
      "type": "function"
    },
    {
      "inputs": [],
      "name": "ownerWithdraw",
      "outputs": [],
      "stateMutability": "nonpayable",
      "type": "function"
    },
    {
      "inputs": [],
      "name": "platformFeePercent",
      "outputs": [
        {
          "internalType": "uint256",
          "name": "",
          "type": "uint256"
        }
      ],
      "stateMutability": "view",
      "type": "function"
    },
    {
      "inputs": [
        {
          "internalType": "uint256",
          "name": "_courseId",
          "type": "uint256"
        },
        {
          "internalType": "address",
          "name": "_buyer",
          "type": "address"
        }
      ],
      "name": "processRefund",
      "outputs": [],
      "stateMutability": "nonpayable",
      "type": "function"
    },
    {
      "inputs": [
        {
          "internalType": "uint256",
          "name": "_courseId",
          "type": "uint256"
        }
      ],
      "name": "purchaseCourse",
      "outputs": [],
      "stateMutability": "payable",
      "type": "function"
    },
    {
      "inputs": [
        {
          "internalType": "uint256",
          "name": "_courseId",
          "type": "uint256"
        }
      ],
      "name": "requestRefund",
      "outputs": [],
      "stateMutability": "nonpayable",
      "type": "function"
    },
    {
      "inputs": [
        {
          "internalType": "uint256",
          "name": "_courseId",
          "type": "uint256"
        },
        {
          "internalType": "string",
          "name": "_title",
          "type": "string"
        },
        {
          "internalType": "string",
          "name": "_description",
          "type": "string"
        },
        {
          "internalType": "string",
          "name": "_thumbnailIpfsHash",
          "type": "string"
        },
        {
          "internalType": "string",
          "name": "_introVideoIpfsHash",
          "type": "string"
        },
        {
          "internalType": "uint256",
          "name": "_price",
          "type": "uint256"
        },
        {
          "internalType": "bool",
          "name": "_isActive",
          "type": "bool"
        }
      ],
      "name": "updateCourse",
      "outputs": [],
      "stateMutability": "nonpayable",
      "type": "function"
    },
    {
      "inputs": [
        {
          "internalType": "uint256",
          "name": "_courseId",
          "type": "uint256"
        },
        {
          "internalType": "uint256",
          "name": "_moduleIndex",
          "type": "uint256"
        },
        {
          "internalType": "string",
          "name": "_moduleTitle",
          "type": "string"
        },
        {
          "internalType": "string",
          "name": "_moduleIpfsHash",
          "type": "string"
        }
      ],
      "name": "updateModule",
      "outputs": [],
      "stateMutability": "nonpayable",
      "type": "function"
    },
    {
      "inputs": [
        {
          "internalType": "address",
          "name": "",
          "type": "address"
        },
        {
          "internalType": "uint256",
          "name": "",
          "type": "uint256"
        }
      ],
      "name": "userCourseIds",
      "outputs": [
        {
          "internalType": "uint256",
          "name": "",
          "type": "uint256"
        }
      ],
      "stateMutability": "view",
      "type": "function"
    },
    {
      "inputs": [
        {
          "internalType": "address",
          "name": "",
          "type": "address"
        },
        {
          "internalType": "uint256",
          "name": "",
          "type": "uint256"
        }
      ],
      "name": "userPurchases",
      "outputs": [
        {
          "internalType": "uint256",
          "name": "courseId",
          "type": "uint256"
        },
        {
          "internalType": "uint256",
          "name": "purchaseDate",
          "type": "uint256"
        },
        {
          "internalType": "bool",
          "name": "refundRequested",
          "type": "bool"
        },
        {
          "internalType": "bool",
          "name": "refunded",
          "type": "bool"
        }
      ],
      "stateMutability": "view",
      "type": "function"
    }
  ],
  "bytecode": "0x60803461006657601f6122c138819003918201601f19168301916001600160401b0383118484101761006b578084926020946040528339810103126100665751600080546001600160a01b0319163317815560015560025560405161223f90816100828239f35b600080fd5b634e487b7160e01b600052604160045260246000fdfe6040608081526004908136101561001557600080fd5b600090813560e01c80630acea7fc146119015780630dba2e541461187457806342e46719146117f95780634311de8f146117495780634b9e76a7146115205780635631576a146113cc57806356874eb114611395578063598bfeb71461130057806364ec8bdb1461126c578063716bdb0d1461116957806382216fbd1461114b5780638c639a851461112d5780638da5cb5b146111065780639165ce36146110bf5780639310b3d614610edf57806396f979d214610dbe578063981059ee14610ce3578063a0e7586114610bc1578063a4b2409e14610a6b578063a51c67c614610a0d578063cbb01c4c146108fd578063cc8d89a314610743578063cd13193814610477578063cf08ca631461041f578063cf2c0334146103b4578063d7a5791a1461033b578063e6cd7ab614610304578063edf7342b146102cd5763fa1ba3b01461016057600080fd5b346102c95760603660031901126102c957823567ffffffffffffffff6024358181116102c5576101939036908701611a5d565b906044359081116102c5576101ad600b9136908801611a5d565b831515806102b9575b6101bf90611e6e565b83865260036020526101e060018060a01b0360068789200154163314611eb2565b6101ec83511515611f11565b6101f881511515611f5d565b8386526003602052610224836002878920938a60205261021e898b209160018301611fcd565b01611fcd565b01906102308254611d04565b80925560001982018281116102a6577f7087434e8d3e617b4d748be05dd310575f0aeaf40203852317b00a4fa4bbf719959650907fc4f3ef40e8cf31adb37cfeddf4e080e505332c588893acb1c97e81c583bafd799161029586519283928784611ffd565b0390a182519182526020820152a180f35b634e487b7160e01b865260118752602486fd5b506001548411156101b6565b8480fd5b5080fd5b50346102c95760203660031901126102c95760209181906001600160a01b036102f4611a0f565b1681526006845220549051908152f35b50346102c95760203660031901126102c95760209181906001600160a01b0361032b611a0f565b1681526008845220549051908152f35b5082346103b05760203660031901126103b05780359161036560018060a01b03855416331461210a565b601e831161037557505060025580f35b906020606492519162461bcd60e51b835282015260156024820152744665652063616e6e6f74206578636565642033302560581b6044820152fd5b8280fd5b50346102c957806003193601126102c95760809160ff9082906001600160a01b036103dd611a0f565b168152600560205281812060243582526020522080549260026001830154920154918151948552602085015282821615159084015260081c1615156060820152f35b50346102c957806003193601126102c957610438611a0f565b6001600160a01b03168252600760205280822080546024359390841015610474575060209261046691611ab4565b91905490519160031b1c8152f35b80fd5b50602090816003193601126103b057833580151580610737575b61049a90611e6e565b8084526003835260ff6008838620015416156106fd57808452600383528184209260078401938454908134106106c35733875260058352848720848852835260018588200154610680576104fc60646104f560025485612068565b0483611ff0565b916009820161050b8154611d04565b905561051c600a830191825461207b565b9055600c810161052c8154611d04565b9055600601546001600160a01b0316865260088252838620805490916105519161207b565b905582516080810181811067ffffffffffffffff82111761066d57906006929185528381528181014281526105c36002878401938a855260608101938b8552338c5260058752898c20898d528752898c20915182555160018201550192511515839060ff801983541691151516179055565b51151561ff0082549160081b169061ff001916179055338652526105e981838620611e39565b838354803411610636575b50509154905191825233602083015260408201527f6d846848ed199e5a5cc3af1d2846d9e5aa7d59c948360982923973138cbc241b9080606081015b0390a180f35b8180610643819334611ff0565b818115610664575b3390f11561065a5783856105f4565b81513d85823e3d90fd5b506108fc61064b565b634e487b7160e01b875260418852602487fd5b845162461bcd60e51b8152808901849052601860248201527f436f7572736520616c72656164792070757263686173656400000000000000006044820152606490fd5b845162461bcd60e51b81528089018490526014602482015273125b9cdd59999a58da595b9d081c185e5b595b9d60621b6044820152606490fd5b815162461bcd60e51b81528086018490526014602482015273436f75727365206973206e6f742061637469766560601b6044820152606490fd5b50600154811115610491565b5082346103b05760e03660031901126103b05780356024359267ffffffffffffffff938481116108f95761077a9036908501611a5d565b926044358581116108f5576107929036908301611a5d565b90866064358781116102c9576107ab9036908401611a5d565b966084359081116102c9576107c39036908401611a5d565b60a4359260c43594851515958681036102c55760088a6108997f2a862fb735381b2e519f2392b5deecb8239b129cc07879a1cce4f542c01cb59e9d6108906108b1966108878f8f909c8d8f6108bf9f908f61086e90610875931515806108e9575b61082d90611e6e565b848652600360205261084e60018060a01b0360068989200154163314611eb2565b61085a8d511515611bc2565b6108668b511515611c06565b511515611c5e565b1515611cb8565b81526003602052209560018701611d29565b60028501611d29565b60058301611d29565b876007820155019060ff801983541691151516179055565b868a52602052848920611d29565b6108da835195869586526080602087015260808601906119cf565b9284015260608301520390a180f35b50600154851115610824565b8680fd5b8580fd5b5091346102c957602090816003193601126103b057803580151580610a01575b61092690611e6e565b83528082526002848420019182549167ffffffffffffffff83116109ee57509290845190610959858260051b0183611a25565b8082528482018094845285842084915b8383106109ca57505050508451938085019181865251809252858501958260051b8601019392955b82871061099e5785850386f35b9091929382806109ba600193603f198a820301865288516119cf565b9601920196019592919092610991565b60018881926109dc859b98999b611b1c565b81520192019201919096949396610969565b634e487b7160e01b855260419052602484fd5b5060015481111561091d565b5082346103b05760203660031901126103b05781610a5b9382610a48933580151580610a5f575b610a3d90611e6e565b825260205220611b1c565b90519182916020835260208301906119cf565b0390f35b50600154811115610a34565b50346102c9576020806003193601126103b05783359081151580610bb5575b610a9390611e6e565b338452600581528284208285528152828420946002600187015496610ab9881515612088565b019081549660ff8816610b7257610ad660ff8960081c16156120cb565b62278d008101809111610b5f574211610b24575060017fd8420f97dab0b820e066ebfad617848c1eab2d260922358cc1d5cdcdc568d572959660ff191617905582519182523390820152a180f35b845162461bcd60e51b815290810183905260156024820152741499599d5b99081c195c9a5bd908195e1c1a5c9959605a1b6044820152606490fd5b634e487b7160e01b875260118252602487fd5b855162461bcd60e51b8152808301859052601860248201527f526566756e6420616c72656164792072657175657374656400000000000000006044820152606490fd5b50600154821115610a8a565b5082346103b05760803660031901126103b0578035602435916044359367ffffffffffffffff948581116108f557610bfc9036908401611a5d565b906064359586116108f557610ccd61063093610c3c7fc4f3ef40e8cf31adb37cfeddf4e080e505332c588893acb1c97e81c583bafd799836908301611a5d565b9086151580610cd7575b610c4f90611e6e565b868a526003602052610c7060018060a01b036006868d200154163314611eb2565b868a526003602052610c89600b858c200154891061201c565b610c9585511515611f11565b610ca182511515611f5d565b868a52602052610cc1876001858c20610cc788610cc18560028501611ab4565b90611fa8565b01611ab4565b5193849384611ffd565b50600154871115610c46565b50919034610474576020366003190112610474578290823580151580610db2575b610d0d90611e6e565b81526003602052209182549183015490610da3600d85015491610d95610d3560018801611b1c565b96610d87610d4560028301611b1c565b93610d5e6005610d5760038601611b1c565b9401611b1c565b94610d7a82519b8c9b8c5260e060208d015260e08c01906119cf565b918a8303908b01526119cf565b9087820360608901526119cf565b9085820360808701526119cf565b9160a084015260c08301520390f35b50600154811115610d04565b50919034610474576020366003190112610474578290823581526003602052209081549260018301610def90611b1c565b92610dfc60028201611b1c565b610e0860038301611b1c565b9382015493610e1960058401611b1c565b94600160a01b60019003600685015416956007850154600886015460ff1691600987015493600a88015495600b89015497600c8a015499600d01549a80519e8f9e8f9182526101c08060208401528201610e72916119cf565b91818303910152610e82916119cf565b8c810360608e0152610e93916119cf565b9060808c01528a810360a08c0152610eaa916119cf565b9760c08a015260e089015215156101008801526101208701526101408601526101608501526101808401526101a08301520390f35b508290346103b0576101003660031901126103b05767ffffffffffffffff9180358381116102c557610f149036908301611a5d565b916024358481116108f957610f2c9036908401611a5d565b856044358681116102c957610f449036908601611a5d565b936064358781116103b057610f5c9036908301611a5d565b6084359788116103b0578661100e610f987f48ecb80c764507d9b513e5fbdba76e8b8177d246e4314b2718204d1027f996739a36908601611a5d565b9261089060e43599610fac85511515611bc2565b610fb883511515611c06565b610fc486511515611c5e565b610fcf8b1515611cb8565b611005600199610ffc610fe28c54611d04565b97888d55888c5260036020528d8c209889558c8901611d29565b60028701611d29565b60038501611d29565b60a4358382015560068101336bffffffffffffffffffffffff60a01b825416179055866007820155600881018560ff1982541617905583600982015583600a82015583600b82015583600c820155600d60c43591015583548352816020526110798584209182611d29565b01553386526007602052611091828720825490611e39565b54916110ae825194859485526080602086015260808501906119cf565b91339084015260608301520390a180f35b50346102c957806003193601126102c9576110d8611a0f565b6001600160a01b03168252600660205280822080546024359390841015610474575060209261046691611ab4565b50346102c957816003193601126102c957905490516001600160a01b039091168152602090f35b50346102c957816003193601126102c9576020906002549051908152f35b50346102c957816003193601126102c9576020906001549051908152f35b509190346104745761117a366119b4565b909283151580611260575b61118e90611e6e565b3383526020936005855285842081855285526001868520015415158061123d575b6111b8906121b2565b8084528185528186852001548310156111fa57835283528382209082526003018252829020610a5b906111ea90611b1c565b92519282849384528301906119cf565b855162461bcd60e51b8152808301869052601c60248201527f4d6174657269616c20696e646578206f7574206f6620626f756e6473000000006044820152606490fd5b503384526005855285842081855285528584206002015460081c60ff16156111af565b50600154841115611185565b50346102c957816003193601126102c957338252600860205280822054828115611296811561216d565b338252600860205281848120558282916112f6575b8280929181923390f1156112eb57907f0d53b74a6cb6d1fbd9dc6dc1d7714036c7c6a3f48350103a7011041eb32a4c5e918151903382526020820152a180f35b5051903d90823e3d90fd5b6108fc91506112ab565b5082346103b05760203660031901126103b0577f2808e4e54ef7d74542a34491d0678c27da2c5006cae2f1d6a70adbf0f35e1e7191602091359081151580611389575b61134c90611e6e565b8185526003835261136c60018060a01b0360068388200154163314611eb2565b81855260038352808520600801805460ff1916905551908152a180f35b50600154821115611343565b50346102c95760203660031901126102c95760209181906001600160a01b036113bc611a0f565b1681526007845220549051908152f35b50346102c95760603660031901126102c9578235906024359060443567ffffffffffffffff81116102c5576114049036908701611a5d565b9183151580611514575b61141790611e6e565b83855260206003815261143960018060a01b0360068589200154163314611eb2565b84865260038152611451600b8488200154831061201c565b8351156114c75784865286815261147a8387209460038987019687548a52018352848820611d29565b6114848454611d04565b80945560001984019384116102a65782519485528401528201527f98eb1700b6a89371c18542b3fd629ae567977677a9006f4e187ad014e69ca74290606090a180f35b8660849184519162461bcd60e51b8352820152602260248201527f4d6174657269616c204950465320686173682063616e6e6f7420626520656d70604482015261747960f01b6064820152fd5b5060015484111561140e565b5082346103b057816003193601126103b057602435908035906001600160a01b038084168085036108f55761155982885416331461210a565b8315158061173d575b61156b90611e6e565b808752602091600583528688208589528352600287892061159160018201541515612088565b0190815460ff8116156117045760ff6115ae9160081c16156120cb565b858952600384528789209360078501956115d8875460646115d160025483612068565b0490611ff0565b9260068701541690818c5260088352838b8d2054106116c15750938a9591938695936008879687968752526116118c8620918254611ff0565b905561010061ff00198254161790556009820161162e8154612160565b9055600c875492600a8101611644858254611ff0565b9055016116518154612160565b90558282156116b8575bf1156116ab575492519081526001600160a01b03909116602082015260408101919091527f79ff6a60b3e21b3630b207e2a7b0b50b69b197d3d7ca776108ed2afb8fbac8dc908060608101610630565b50505051903d90823e3d90fd5b506108fc61165b565b8a5162461bcd60e51b8152908101839052601c60248201527f496e73756666696369656e742063726561746f722062616c616e6365000000006044820152606490fd5b885162461bcd60e51b81528087018690526013602482015272139bc81c99599d5b99081c995c5d595cdd1959606a1b6044820152606490fd5b50600154841115611562565b50346102c957816003193601126102c957815482906001600160a01b0390811661177433821461210a565b6001805447935b818311156117bc575050508282819392829315611798811561216d565b83906117b3575bf1156117a9575080f35b51903d90823e3d90fd5b506108fc61179f565b91946117ee919394866117e8925260086020600381528560068b8d200154168b52528789205490611ff0565b94611d04565b90918694939261177b565b50346102c957806003193601126102c95790602091611816611a0f565b6001600160a01b03168083526005845281832060243580855290855282842060010154151593918461184e575b505050519015158152f35b82526005855282822090825284528190206002015460081c60ff16159150838080611843565b5082346103b05760203660031901126103b05760c092829135801515806118f5575b61189f90611e6e565b81526003602052209060018060a01b036006830154169160ff600882015416916007820154600983015491600c600b850154940154948151968752151560208701528501526060840152608083015260a0820152f35b50600154811115611896565b50919034610474576111ea611980610a5b9260018661191f366119b4565b939097881515806119a9575b61193490611e6e565b33825260209860058a528383208184528a52848484200154151580611986575b61195d906121b2565b80835260038a52611975600b8585200154871061201c565b825288522001611ab4565b50611b1c565b5033835260058a528383208184528a528383206002015460081c60ff1615611954565b50835489111561192b565b60409060031901126119ca576004359060243590565b600080fd5b919082519283825260005b8481106119fb575050826000602080949584010152601f8019910116010190565b6020818301810151848301820152016119da565b600435906001600160a01b03821682036119ca57565b90601f8019910116810190811067ffffffffffffffff821117611a4757604052565b634e487b7160e01b600052604160045260246000fd5b81601f820112156119ca5780359067ffffffffffffffff8211611a475760405192611a92601f8401601f191660200185611a25565b828452602083830101116119ca57816000926020809301838601378301015290565b8054821015611acc5760005260206000200190600090565b634e487b7160e01b600052603260045260246000fd5b90600182811c92168015611b12575b6020831014611afc57565b634e487b7160e01b600052602260045260246000fd5b91607f1691611af1565b9060405191826000825492611b3084611ae2565b908184526001948581169081600014611b9f5750600114611b5c575b5050611b5a92500383611a25565b565b9093915060005260209081600020936000915b818310611b87575050611b5a93508201013880611b4c565b85548884018501529485019487945091830191611b6f565b915050611b5a94506020925060ff191682840152151560051b8201013880611b4c565b15611bc957565b60405162461bcd60e51b81526020600482015260156024820152745469746c652063616e6e6f7420626520656d70747960581b6044820152606490fd5b15611c0d57565b60405162461bcd60e51b815260206004820152602360248201527f5468756d626e61696c204950465320686173682063616e6e6f7420626520656d60448201526270747960e81b6064820152608490fd5b15611c6557565b60405162461bcd60e51b815260206004820152602560248201527f496e74726f20766964656f204950465320686173682063616e6e6f7420626520604482015264656d70747960d81b6064820152608490fd5b15611cbf57565b60405162461bcd60e51b815260206004820152601f60248201527f5072696365206d7573742062652067726561746572207468616e207a65726f006044820152606490fd5b6000198114611d135760010190565b634e487b7160e01b600052601160045260246000fd5b919091825167ffffffffffffffff8111611a4757611d478254611ae2565b601f8111611df1575b50602080601f8311600114611d8d575081929394600092611d82575b50508160011b916000199060031b1c1916179055565b015190503880611d6c565b90601f198316958460005282600020926000905b888210611dd957505083600195969710611dc0575b505050811b019055565b015160001960f88460031b161c19169055388080611db6565b80600185968294968601518155019501930190611da1565b600083815260208120601f840160051c81019260208510611e2f575b601f0160051c01915b828110611e24575050611d50565b818155600101611e16565b9092508290611e0d565b8054600160401b811015611a4757611e5691600182018155611ab4565b819291549060031b91821b91600019901b1916179055565b15611e7557565b60405162461bcd60e51b815260206004820152601560248201527410dbdd5c9cd948191bd95cc81b9bdd08195e1a5cdd605a1b6044820152606490fd5b15611eb957565b60405162461bcd60e51b815260206004820152602a60248201527f4f6e6c7920636f757273652063726561746f722063616e206d6f64696679207460448201526968697320636f7572736560b01b6064820152608490fd5b15611f1857565b60405162461bcd60e51b815260206004820152601c60248201527f4d6f64756c65207469746c652063616e6e6f7420626520656d707479000000006044820152606490fd5b15611f6457565b606460405162461bcd60e51b815260206004820152602060248201527f4d6f64756c65204950465320686173682063616e6e6f7420626520656d7074796044820152fd5b9190611fb757611b5a91611d29565b634e487b7160e01b600052600060045260246000fd5b90815491600160401b831015611a475782610cc1916001611b5a95018155611ab4565b91908203918211611d1357565b61201993926060928252602082015281604082015201906119cf565b90565b1561202357565b60405162461bcd60e51b815260206004820152601a60248201527f4d6f64756c6520696e646578206f7574206f6620626f756e64730000000000006044820152606490fd5b81810292918115918404141715611d1357565b91908201809211611d1357565b1561208f57565b60405162461bcd60e51b815260206004820152601460248201527310dbdd5c9cd9481b9bdd081c1d5c98da185cd95960621b6044820152606490fd5b156120d257565b60405162461bcd60e51b815260206004820152601060248201526f105b1c9958591e481c99599d5b99195960821b6044820152606490fd5b1561211157565b60405162461bcd60e51b815260206004820152602160248201527f4f6e6c79206f776e65722063616e2063616c6c20746869732066756e6374696f6044820152603760f91b6064820152608490fd5b8015611d13576000190190565b1561217457565b60405162461bcd60e51b81526020600482015260166024820152754e6f2062616c616e636520746f20776974686472617760501b6044820152606490fd5b156121b957565b60405162461bcd60e51b815260206004820152602260248201527f596f752068617665206e6f7420707572636861736564207468697320636f7572604482015261736560f01b6064820152608490fdfea26469706673582212204a100e74c9edea2efbf6a6ac2c3d6165c17d59248640ee69fa7036555b90124764736f6c63430008130033",
  "linkReferences": {},
  "deployedLinkReferences": {}
}